{
  "contractName": "Agrichain",
  "abi": [
    {
      "constant": true,
      "inputs": [
        {
          "name": "",
          "type": "address"
        }
      ],
      "name": "participants",
      "outputs": [
        {
          "name": "client",
          "type": "address"
        },
        {
          "name": "email",
          "type": "string"
        },
        {
          "name": "fullname",
          "type": "string"
        },
        {
          "name": "cellnumber",
          "type": "string"
        },
        {
          "name": "password",
          "type": "string"
        },
        {
          "name": "accountType",
          "type": "uint8"
        }
      ],
      "payable": false,
      "stateMutability": "view",
      "type": "function"
    },
    {
      "constant": true,
      "inputs": [
        {
          "name": "",
          "type": "address"
        },
        {
          "name": "",
          "type": "uint256"
        }
      ],
      "name": "producers",
      "outputs": [
        {
          "name": "",
          "type": "uint256"
        }
      ],
      "payable": false,
      "stateMutability": "view",
      "type": "function"
    },
    {
      "constant": true,
      "inputs": [
        {
          "name": "",
          "type": "uint256"
        }
      ],
      "name": "allProducers",
      "outputs": [
        {
          "name": "",
          "type": "address"
        }
      ],
      "payable": false,
      "stateMutability": "view",
      "type": "function"
    },
    {
      "constant": true,
      "inputs": [],
      "name": "version",
      "outputs": [
        {
          "name": "",
          "type": "string"
        }
      ],
      "payable": false,
      "stateMutability": "view",
      "type": "function"
    },
    {
      "constant": true,
      "inputs": [
        {
          "name": "",
          "type": "uint256"
        }
      ],
      "name": "allConsumers",
      "outputs": [
        {
          "name": "",
          "type": "address"
        }
      ],
      "payable": false,
      "stateMutability": "view",
      "type": "function"
    },
    {
      "constant": true,
      "inputs": [],
      "name": "owner",
      "outputs": [
        {
          "name": "",
          "type": "address"
        }
      ],
      "payable": false,
      "stateMutability": "view",
      "type": "function"
    },
    {
      "constant": true,
      "inputs": [
        {
          "name": "",
          "type": "uint256"
        }
      ],
      "name": "allDistributers",
      "outputs": [
        {
          "name": "",
          "type": "address"
        }
      ],
      "payable": false,
      "stateMutability": "view",
      "type": "function"
    },
    {
      "constant": true,
      "inputs": [
        {
          "name": "",
          "type": "address"
        },
        {
          "name": "",
          "type": "uint256"
        }
      ],
      "name": "consumers",
      "outputs": [
        {
          "name": "",
          "type": "uint256"
        }
      ],
      "payable": false,
      "stateMutability": "view",
      "type": "function"
    },
    {
      "constant": true,
      "inputs": [
        {
          "name": "",
          "type": "address"
        },
        {
          "name": "",
          "type": "uint256"
        }
      ],
      "name": "distributers",
      "outputs": [
        {
          "name": "",
          "type": "uint256"
        }
      ],
      "payable": false,
      "stateMutability": "view",
      "type": "function"
    },
    {
      "constant": true,
      "inputs": [
        {
          "name": "",
          "type": "uint256"
        }
      ],
      "name": "assets",
      "outputs": [
        {
          "name": "created",
          "type": "uint256"
        },
        {
          "name": "harvestYear",
          "type": "string"
        },
        {
          "name": "commodity",
          "type": "uint8"
        },
        {
          "name": "status",
          "type": "uint8"
        },
        {
          "name": "totalAcer",
          "type": "string"
        },
        {
          "name": "averageYield",
          "type": "string"
        },
        {
          "name": "estimatedBasic",
          "type": "string"
        },
        {
          "name": "cropInsuranceCoverage",
          "type": "string"
        },
        {
          "name": "productCost",
          "type": "string"
        }
      ],
      "payable": false,
      "stateMutability": "view",
      "type": "function"
    },
    {
      "constant": true,
      "inputs": [],
      "name": "assetIndex",
      "outputs": [
        {
          "name": "",
          "type": "uint256"
        }
      ],
      "payable": false,
      "stateMutability": "view",
      "type": "function"
    },
    {
      "inputs": [],
      "payable": false,
      "stateMutability": "nonpayable",
      "type": "constructor"
    },
    {
      "anonymous": false,
      "inputs": [
        {
          "indexed": true,
          "name": "participants",
          "type": "address"
        }
      ],
      "name": "SignUpComplete",
      "type": "event"
    },
    {
      "constant": false,
      "inputs": [
        {
          "name": "_email",
          "type": "string"
        },
        {
          "name": "_fullname",
          "type": "string"
        },
        {
          "name": "_cellnumber",
          "type": "string"
        },
        {
          "name": "_password",
          "type": "string"
        },
        {
          "name": "_type",
          "type": "uint8"
        }
      ],
      "name": "signup",
      "outputs": [],
      "payable": false,
      "stateMutability": "nonpayable",
      "type": "function"
    },
    {
      "constant": false,
      "inputs": [
        {
          "name": "_harvestYear",
          "type": "string"
        },
        {
          "name": "_commodity",
          "type": "uint8"
        },
        {
          "name": "_totalAcer",
          "type": "string"
        },
        {
          "name": "_averageYield",
          "type": "string"
        },
        {
          "name": "_estimatedBasic",
          "type": "string"
        },
        {
          "name": "_cropInsuranceCoverage",
          "type": "string"
        },
        {
          "name": "_productCost",
          "type": "string"
        }
      ],
      "name": "postAssets",
      "outputs": [],
      "payable": false,
      "stateMutability": "nonpayable",
      "type": "function"
    },
    {
      "constant": true,
      "inputs": [],
      "name": "getAllProducers",
      "outputs": [
        {
          "name": "",
          "type": "address[]"
        }
      ],
      "payable": false,
      "stateMutability": "view",
      "type": "function"
    },
    {
      "constant": true,
      "inputs": [],
      "name": "getAllDistributors",
      "outputs": [
        {
          "name": "",
          "type": "address[]"
        }
      ],
      "payable": false,
      "stateMutability": "view",
      "type": "function"
    },
    {
      "constant": true,
      "inputs": [],
      "name": "getAllConsumers",
      "outputs": [
        {
          "name": "",
          "type": "address[]"
        }
      ],
      "payable": false,
      "stateMutability": "view",
      "type": "function"
    },
    {
      "constant": true,
      "inputs": [],
      "name": "getAssetsIndex",
      "outputs": [
        {
          "name": "",
          "type": "uint256[]"
        }
      ],
      "payable": false,
      "stateMutability": "view",
      "type": "function"
    },
    {
      "constant": false,
      "inputs": [
        {
          "name": "_addrDistributor",
          "type": "address"
        },
        {
          "name": "_index",
          "type": "uint256"
        }
      ],
      "name": "sellToDistributor",
      "outputs": [],
      "payable": false,
      "stateMutability": "nonpayable",
      "type": "function"
    },
    {
      "constant": false,
      "inputs": [
        {
          "name": "_addrConsumer",
          "type": "address"
        },
        {
          "name": "_index",
          "type": "uint256"
        }
      ],
      "name": "sellToConsumer",
      "outputs": [],
      "payable": false,
      "stateMutability": "nonpayable",
      "type": "function"
    }
  ],
  "bytecode": "0x60806040526040805190810160405280600581526020017f302e302e310000000000000000000000000000000000000000000000000000008152506008908051906020019062000051929190620000a7565b503480156200005f57600080fd5b5033600960006101000a81548173ffffffffffffffffffffffffffffffffffffffff021916908373ffffffffffffffffffffffffffffffffffffffff16021790555062000156565b828054600181600116156101000203166002900490600052602060002090601f016020900481019282601f10620000ea57805160ff19168380011785556200011b565b828001600101855582156200011b579182015b828111156200011a578251825591602001919060010190620000fd565b5b5090506200012a91906200012e565b5090565b6200015391905b808211156200014f57600081600090555060010162000135565b5090565b90565b61276080620001666000396000f300608060405260043610610107576000357c0100000000000000000000000000000000000000000000000000000000900463ffffffff16806309e69ede1461010c57806327d78c691461035457806328e99630146103b55780632c06779d14610402578063364dfb741461046e578063397734f3146104da57806344a10e351461054757806354fd4d501461059457806355cb320f146106245780638da5cb5b146106915780638e24c34b146106e85780638f4368ab14610754578063a4403b3d146107c1578063add6f41e14610995578063b09d687d146109f6578063c83b90e514610a57578063cc5b68b714610ac3578063cf35bdd014610c0b578063e07b098a14610efe575b600080fd5b34801561011857600080fd5b5061014d600480360381019080803573ffffffffffffffffffffffffffffffffffffffff169060200190929190505050610f29565b604051808773ffffffffffffffffffffffffffffffffffffffff1673ffffffffffffffffffffffffffffffffffffffff1681526020018060200180602001806020018060200186600281111561019f57fe5b60ff16815260200185810385528a818151815260200191508051906020019080838360005b838110156101df5780820151818401526020810190506101c4565b50505050905090810190601f16801561020c5780820380516001836020036101000a031916815260200191505b50858103845289818151815260200191508051906020019080838360005b8381101561024557808201518184015260208101905061022a565b50505050905090810190601f1680156102725780820380516001836020036101000a031916815260200191505b50858103835288818151815260200191508051906020019080838360005b838110156102ab578082015181840152602081019050610290565b50505050905090810190601f1680156102d85780820380516001836020036101000a031916815260200191505b50858103825287818151815260200191508051906020019080838360005b838110156103115780820151818401526020810190506102f6565b50505050905090810190601f16801561033e5780820380516001836020036101000a031916815260200191505b509a505050505050505050505060405180910390f35b34801561036057600080fd5b5061039f600480360381019080803573ffffffffffffffffffffffffffffffffffffffff169060200190929190803590602001909291905050506111f2565b6040518082815260200191505060405180910390f35b3480156103c157600080fd5b50610400600480360381019080803573ffffffffffffffffffffffffffffffffffffffff16906020019092919080359060200190929190505050611222565b005b34801561040e57600080fd5b506104176113cd565b6040518080602001828103825283818151815260200191508051906020019060200280838360005b8381101561045a57808201518184015260208101905061043f565b505050509050019250505060405180910390f35b34801561047a57600080fd5b5061048361145b565b6040518080602001828103825283818151815260200191508051906020019060200280838360005b838110156104c65780820151818401526020810190506104ab565b505050509050019250505060405180910390f35b3480156104e657600080fd5b50610505600480360381019080803590602001909291905050506114e9565b604051808273ffffffffffffffffffffffffffffffffffffffff1673ffffffffffffffffffffffffffffffffffffffff16815260200191505060405180910390f35b34801561055357600080fd5b50610592600480360381019080803573ffffffffffffffffffffffffffffffffffffffff16906020019092919080359060200190929190505050611527565b005b3480156105a057600080fd5b506105a961170b565b6040518080602001828103825283818151815260200191508051906020019080838360005b838110156105e95780820151818401526020810190506105ce565b50505050905090810190601f1680156106165780820380516001836020036101000a031916815260200191505b509250505060405180910390f35b34801561063057600080fd5b5061064f600480360381019080803590602001909291905050506117a9565b604051808273ffffffffffffffffffffffffffffffffffffffff1673ffffffffffffffffffffffffffffffffffffffff16815260200191505060405180910390f35b34801561069d57600080fd5b506106a66117e7565b604051808273ffffffffffffffffffffffffffffffffffffffff1673ffffffffffffffffffffffffffffffffffffffff16815260200191505060405180910390f35b3480156106f457600080fd5b506106fd61180d565b6040518080602001828103825283818151815260200191508051906020019060200280838360005b83811015610740578082015181840152602081019050610725565b505050509050019250505060405180910390f35b34801561076057600080fd5b5061077f6004803603810190808035906020019092919050505061189b565b604051808273ffffffffffffffffffffffffffffffffffffffff1673ffffffffffffffffffffffffffffffffffffffff16815260200191505060405180910390f35b3480156107cd57600080fd5b50610993600480360381019080803590602001908201803590602001908080601f0160208091040260200160405190810160405280939291908181526020018383808284378201915050505050509192919290803560ff169060200190929190803590602001908201803590602001908080601f0160208091040260200160405190810160405280939291908181526020018383808284378201915050505050509192919290803590602001908201803590602001908080601f0160208091040260200160405190810160405280939291908181526020018383808284378201915050505050509192919290803590602001908201803590602001908080601f0160208091040260200160405190810160405280939291908181526020018383808284378201915050505050509192919290803590602001908201803590602001908080601f0160208091040260200160405190810160405280939291908181526020018383808284378201915050505050509192919290803590602001908201803590602001908080601f01602080910402602001604051908101604052809392919081815260200183838082843782019150505050505091929192905050506118d9565b005b3480156109a157600080fd5b506109e0600480360381019080803573ffffffffffffffffffffffffffffffffffffffff16906020019092919080359060200190929190505050611b4d565b6040518082815260200191505060405180910390f35b348015610a0257600080fd5b50610a41600480360381019080803573ffffffffffffffffffffffffffffffffffffffff16906020019092919080359060200190929190505050611b7d565b6040518082815260200191505060405180910390f35b348015610a6357600080fd5b50610a6c611bad565b6040518080602001828103825283818151815260200191508051906020019060200280838360005b83811015610aaf578082015181840152602081019050610a94565b505050509050019250505060405180910390f35b348015610acf57600080fd5b50610c09600480360381019080803590602001908201803590602001908080601f0160208091040260200160405190810160405280939291908181526020018383808284378201915050505050509192919290803590602001908201803590602001908080601f0160208091040260200160405190810160405280939291908181526020018383808284378201915050505050509192919290803590602001908201803590602001908080601f0160208091040260200160405190810160405280939291908181526020018383808284378201915050505050509192919290803590602001908201803590602001908080601f0160208091040260200160405190810160405280939291908181526020018383808284378201915050505050509192919290803560ff169060200190929190505050611ebc565b005b348015610c1757600080fd5b50610c3660048036038101908080359060200190929190505050612291565b604051808a815260200180602001896006811115610c5057fe5b60ff168152602001886003811115610c6457fe5b60ff168152602001806020018060200180602001806020018060200187810387528f818151815260200191508051906020019080838360005b83811015610cb8578082015181840152602081019050610c9d565b50505050905090810190601f168015610ce55780820380516001836020036101000a031916815260200191505b5087810386528c818151815260200191508051906020019080838360005b83811015610d1e578082015181840152602081019050610d03565b50505050905090810190601f168015610d4b5780820380516001836020036101000a031916815260200191505b5087810385528b818151815260200191508051906020019080838360005b83811015610d84578082015181840152602081019050610d69565b50505050905090810190601f168015610db15780820380516001836020036101000a031916815260200191505b5087810384528a818151815260200191508051906020019080838360005b83811015610dea578082015181840152602081019050610dcf565b50505050905090810190601f168015610e175780820380516001836020036101000a031916815260200191505b50878103835289818151815260200191508051906020019080838360005b83811015610e50578082015181840152602081019050610e35565b50505050905090810190601f168015610e7d5780820380516001836020036101000a031916815260200191505b50878103825288818151815260200191508051906020019080838360005b83811015610eb6578082015181840152602081019050610e9b565b50505050905090810190601f168015610ee35780820380516001836020036101000a031916815260200191505b509f5050505050505050505050505050505060405180910390f35b348015610f0a57600080fd5b50610f13612689565b6040518082815260200191505060405180910390f35b60006020528060005260406000206000915090508060000160009054906101000a900473ffffffffffffffffffffffffffffffffffffffff1690806001018054600181600116156101000203166002900480601f016020809104026020016040519081016040528092919081815260200182805460018160011615610100020316600290048015610ffb5780601f10610fd057610100808354040283529160200191610ffb565b820191906000526020600020905b815481529060010190602001808311610fde57829003601f168201915b505050505090806002018054600181600116156101000203166002900480601f0160208091040260200160405190810160405280929190818152602001828054600181600116156101000203166002900480156110995780601f1061106e57610100808354040283529160200191611099565b820191906000526020600020905b81548152906001019060200180831161107c57829003601f168201915b505050505090806003018054600181600116156101000203166002900480601f0160208091040260200160405190810160405280929190818152602001828054600181600116156101000203166002900480156111375780601f1061110c57610100808354040283529160200191611137565b820191906000526020600020905b81548152906001019060200180831161111a57829003601f168201915b505050505090806004018054600181600116156101000203166002900480601f0160208091040260200160405190810160405280929190818152602001828054600181600116156101000203166002900480156111d55780601f106111aa576101008083540402835291602001916111d5565b820191906000526020600020905b8154815290600101906020018083116111b857829003601f168201915b5050505050908060050160009054906101000a900460ff16905086565b60026020528160005260406000208181548110151561120d57fe5b90600052602060002001600091509150505481565b6001600281111561122f57fe5b6000803373ffffffffffffffffffffffffffffffffffffffff1673ffffffffffffffffffffffffffffffffffffffff16815260200190815260200160002060050160009054906101000a900460ff16600281111561128957fe5b14151561129557600080fd5b6002808111156112a157fe5b6000808473ffffffffffffffffffffffffffffffffffffffff1673ffffffffffffffffffffffffffffffffffffffff16815260200190815260200160002060050160009054906101000a900460ff1660028111156112fb57fe5b14151561130757600080fd5b600a54811115151561131857600080fd5b6002600381111561132557fe5b6001600083815260200190815260200160002060020160019054906101000a900460ff16600381111561135457fe5b14151561136057600080fd5b600460008373ffffffffffffffffffffffffffffffffffffffff1673ffffffffffffffffffffffffffffffffffffffff1681526020019081526020016000208190806001815401808255809150509060018203906000526020600020016000909192909190915055505050565b6060600580548060200260200160405190810160405280929190818152602001828054801561145157602002820191906000526020600020905b8160009054906101000a900473ffffffffffffffffffffffffffffffffffffffff1673ffffffffffffffffffffffffffffffffffffffff1681526020019060010190808311611407575b5050505050905090565b606060078054806020026020016040519081016040528092919081815260200182805480156114df57602002820191906000526020600020905b8160009054906101000a900473ffffffffffffffffffffffffffffffffffffffff1673ffffffffffffffffffffffffffffffffffffffff1681526020019060010190808311611495575b5050505050905090565b6005818154811015156114f857fe5b906000526020600020016000915054906101000a900473ffffffffffffffffffffffffffffffffffffffff1681565b6000600281111561153457fe5b6000803373ffffffffffffffffffffffffffffffffffffffff1673ffffffffffffffffffffffffffffffffffffffff16815260200190815260200160002060050160009054906101000a900460ff16600281111561158e57fe5b14151561159a57600080fd5b600160028111156115a757fe5b6000808473ffffffffffffffffffffffffffffffffffffffff1673ffffffffffffffffffffffffffffffffffffffff16815260200190815260200160002060050160009054906101000a900460ff16600281111561160157fe5b14151561160d57600080fd5b600a54811115151561161e57600080fd5b6000600381111561162b57fe5b6001600083815260200190815260200160002060020160019054906101000a900460ff16600381111561165a57fe5b14151561166657600080fd5b60026001600083815260200190815260200160002060020160016101000a81548160ff0219169083600381111561169957fe5b0217905550600360008373ffffffffffffffffffffffffffffffffffffffff1673ffffffffffffffffffffffffffffffffffffffff1681526020019081526020016000208190806001815401808255809150509060018203906000526020600020016000909192909190915055505050565b60088054600181600116156101000203166002900480601f0160208091040260200160405190810160405280929190818152602001828054600181600116156101000203166002900480156117a15780601f10611776576101008083540402835291602001916117a1565b820191906000526020600020905b81548152906001019060200180831161178457829003601f168201915b505050505081565b6007818154811015156117b857fe5b906000526020600020016000915054906101000a900473ffffffffffffffffffffffffffffffffffffffff1681565b600960009054906101000a900473ffffffffffffffffffffffffffffffffffffffff1681565b6060600680548060200260200160405190810160405280929190818152602001828054801561189157602002820191906000526020600020905b8160009054906101000a900473ffffffffffffffffffffffffffffffffffffffff1673ffffffffffffffffffffffffffffffffffffffff1681526020019060010190808311611847575b5050505050905090565b6006818154811015156118aa57fe5b906000526020600020016000915054906101000a900473ffffffffffffffffffffffffffffffffffffffff1681565b600060028111156118e657fe5b6000803373ffffffffffffffffffffffffffffffffffffffff1673ffffffffffffffffffffffffffffffffffffffff16815260200190815260200160002060050160009054906101000a900460ff16600281111561194057fe5b14151561194c57600080fd5b600a600081548092919060010191905055506101206040519081016040528042815260200188815260200187600681111561198357fe5b81526020016000600381111561199557fe5b81526020018681526020018581526020018481526020018381526020018281525060016000600a5481526020019081526020016000206000820151816000015560208201518160010190805190602001906119f192919061268f565b5060408201518160020160006101000a81548160ff02191690836006811115611a1657fe5b021790555060608201518160020160016101000a81548160ff02191690836003811115611a3f57fe5b02179055506080820151816003019080519060200190611a6092919061268f565b5060a0820151816004019080519060200190611a7d92919061268f565b5060c0820151816005019080519060200190611a9a92919061268f565b5060e0820151816006019080519060200190611ab792919061268f565b50610100820151816007019080519060200190611ad592919061268f565b50905050600260003373ffffffffffffffffffffffffffffffffffffffff1673ffffffffffffffffffffffffffffffffffffffff168152602001908152602001600020600a54908060018154018082558091505090600182039060005260206000200160009091929091909150555050505050505050565b600460205281600052604060002081815481101515611b6857fe5b90600052602060002001600091509150505481565b600360205281600052604060002081815481101515611b9857fe5b90600052602060002001600091509150505481565b606060016002811115611bbc57fe5b6000803373ffffffffffffffffffffffffffffffffffffffff1673ffffffffffffffffffffffffffffffffffffffff16815260200190815260200160002060050160009054906101000a900460ff166002811115611c1657fe5b1415611cb157600360003373ffffffffffffffffffffffffffffffffffffffff1673ffffffffffffffffffffffffffffffffffffffff168152602001908152602001600020805480602002602001604051908101604052809291908181526020018280548015611ca557602002820191906000526020600020905b815481526020019060010190808311611c91575b50505050509050611eb9565b600280811115611cbd57fe5b6000803373ffffffffffffffffffffffffffffffffffffffff1673ffffffffffffffffffffffffffffffffffffffff16815260200190815260200160002060050160009054906101000a900460ff166002811115611d1757fe5b1415611db257600460003373ffffffffffffffffffffffffffffffffffffffff1673ffffffffffffffffffffffffffffffffffffffff168152602001908152602001600020805480602002602001604051908101604052809291908181526020018280548015611da657602002820191906000526020600020905b815481526020019060010190808311611d92575b50505050509050611eb9565b60006002811115611dbf57fe5b6000803373ffffffffffffffffffffffffffffffffffffffff1673ffffffffffffffffffffffffffffffffffffffff16815260200190815260200160002060050160009054906101000a900460ff166002811115611e1957fe5b1415611eb457600260003373ffffffffffffffffffffffffffffffffffffffff1673ffffffffffffffffffffffffffffffffffffffff168152602001908152602001600020805480602002602001604051908101604052809291908181526020018280548015611ea857602002820191906000526020600020905b815481526020019060010190808311611e94575b50505050509050611eb9565b600080fd5b90565b6000803373ffffffffffffffffffffffffffffffffffffffff1673ffffffffffffffffffffffffffffffffffffffff16815260200190815260200160002060000160009054906101000a900473ffffffffffffffffffffffffffffffffffffffff1673ffffffffffffffffffffffffffffffffffffffff163373ffffffffffffffffffffffffffffffffffffffff1614151515611f5857600080fd5b60c0604051908101604052803373ffffffffffffffffffffffffffffffffffffffff168152602001868152602001858152602001848152602001838152602001826002811115611fa457fe5b8152506000803373ffffffffffffffffffffffffffffffffffffffff1673ffffffffffffffffffffffffffffffffffffffff16815260200190815260200160002060008201518160000160006101000a81548173ffffffffffffffffffffffffffffffffffffffff021916908373ffffffffffffffffffffffffffffffffffffffff160217905550602082015181600101908051906020019061204892919061268f565b50604082015181600201908051906020019061206592919061268f565b50606082015181600301908051906020019061208292919061268f565b50608082015181600401908051906020019061209f92919061268f565b5060a08201518160050160006101000a81548160ff021916908360028111156120c457fe5b02179055509050508060028111156120d857fe5b600160028111156120e557fe5b14156121565760063390806001815401808255809150509060018203906000526020600020016000909192909190916101000a81548173ffffffffffffffffffffffffffffffffffffffff021916908373ffffffffffffffffffffffffffffffffffffffff16021790555050612247565b80600281111561216257fe5b60028081111561216e57fe5b14156121df5760073390806001815401808255809150509060018203906000526020600020016000909192909190916101000a81548173ffffffffffffffffffffffffffffffffffffffff021916908373ffffffffffffffffffffffffffffffffffffffff16021790555050612246565b60053390806001815401808255809150509060018203906000526020600020016000909192909190916101000a81548173ffffffffffffffffffffffffffffffffffffffff021916908373ffffffffffffffffffffffffffffffffffffffff160217905550505b5b3373ffffffffffffffffffffffffffffffffffffffff167fc4981db434777d6b4d01d581b49070b1e1b8efe35404244657762855d442e1d160405160405180910390a25050505050565b6001602052806000526040600020600091509050806000015490806001018054600181600116156101000203166002900480601f0160208091040260200160405190810160405280929190818152602001828054600181600116156101000203166002900480156123435780601f1061231857610100808354040283529160200191612343565b820191906000526020600020905b81548152906001019060200180831161232657829003601f168201915b5050505050908060020160009054906101000a900460ff16908060020160019054906101000a900460ff1690806003018054600181600116156101000203166002900480601f0160208091040260200160405190810160405280929190818152602001828054600181600116156101000203166002900480156124075780601f106123dc57610100808354040283529160200191612407565b820191906000526020600020905b8154815290600101906020018083116123ea57829003601f168201915b505050505090806004018054600181600116156101000203166002900480601f0160208091040260200160405190810160405280929190818152602001828054600181600116156101000203166002900480156124a55780601f1061247a576101008083540402835291602001916124a5565b820191906000526020600020905b81548152906001019060200180831161248857829003601f168201915b505050505090806005018054600181600116156101000203166002900480601f0160208091040260200160405190810160405280929190818152602001828054600181600116156101000203166002900480156125435780601f1061251857610100808354040283529160200191612543565b820191906000526020600020905b81548152906001019060200180831161252657829003601f168201915b505050505090806006018054600181600116156101000203166002900480601f0160208091040260200160405190810160405280929190818152602001828054600181600116156101000203166002900480156125e15780601f106125b6576101008083540402835291602001916125e1565b820191906000526020600020905b8154815290600101906020018083116125c457829003601f168201915b505050505090806007018054600181600116156101000203166002900480601f01602080910402602001604051908101604052809291908181526020018280546001816001161561010002031660029004801561267f5780601f106126545761010080835404028352916020019161267f565b820191906000526020600020905b81548152906001019060200180831161266257829003601f168201915b5050505050905089565b600a5481565b828054600181600116156101000203166002900490600052602060002090601f016020900481019282601f106126d057805160ff19168380011785556126fe565b828001600101855582156126fe579182015b828111156126fd5782518255916020019190600101906126e2565b5b50905061270b919061270f565b5090565b61273191905b8082111561272d576000816000905550600101612715565b5090565b905600a165627a7a7230582064bbbe548e3ec6e42056e4f802e4584197b64d42af5ce79b23540f3a6e03c94d0029",
  "source": "pragma solidity ^0.4.23;\r\n\r\n/* TODO: decentralized neuroscience */\r\n\r\n\r\ncontract Agrichain {\r\n\r\n    \r\n    enum AccountType { PRODUCER, DISTRIBUTOR, CONSUMER }\r\n    enum CommodityType { POTATO, APPLES, STRAWBERRY, BLUEBERRY, BLUEB, WHEAT, OAT }\r\n    enum AssetStatus { CREATED, IN_TRANSIT, SELLING, SOLD }\r\n\r\n    struct ParticipantDetail {\r\n        address client;\r\n        string email;\r\n        string fullname;\r\n        string cellnumber;\r\n        string password;\r\n        AccountType accountType;\r\n    }\r\n\r\n    struct Asset {\r\n        uint256 created;\r\n        string harvestYear;\r\n        CommodityType commodity;\r\n        AssetStatus status;\r\n        string totalAcer;\r\n        string averageYield;\r\n        string estimatedBasic;\r\n        string cropInsuranceCoverage;\r\n        string productCost;\r\n    }\r\n\r\n    \r\n\r\n    mapping(address => ParticipantDetail) public participants;\r\n    mapping(uint => Asset) public assets;\r\n    mapping(address => uint[]) public producers;\r\n    mapping(address => uint[]) public distributers;\r\n    mapping(address => uint[]) public consumers;\r\n\r\n    address[] public allProducers;\r\n    address[] public allDistributers;\r\n    address[] public allConsumers;\r\n\r\n    string public version = \"0.0.1\";\r\n    address public owner;\r\n    uint public assetIndex;\r\n\r\n    // EVENTS\r\n\r\n    event SignUpComplete(address indexed participants);\r\n    \r\n\r\n    modifier onlyOwner() {\r\n        require(msg.sender == owner);\r\n        _;\r\n    }\r\n\r\n    constructor() public {\r\n        owner = msg.sender;\r\n    }\r\n\r\n    function signup(string _email, string _fullname, string _cellnumber, string _password, AccountType _type) public {\r\n        require(msg.sender != participants[msg.sender].client);\r\n\r\n        participants[msg.sender] = ParticipantDetail(msg.sender, _email, _fullname, _cellnumber, _password, _type);\r\n\r\n        if(AccountType.DISTRIBUTOR == _type){\r\n            allDistributers.push(msg.sender);\r\n        }else if(AccountType.CONSUMER == _type){\r\n            allConsumers.push(msg.sender);\r\n        }else {\r\n            allProducers.push(msg.sender);\r\n        }\r\n\r\n        emit SignUpComplete(msg.sender);\r\n    }\r\n\r\n    function postAssets(\r\n        string _harvestYear,\r\n        CommodityType _commodity,\r\n        string _totalAcer, \r\n        string _averageYield, \r\n        string _estimatedBasic, \r\n        string _cropInsuranceCoverage, \r\n        string _productCost) public {\r\n\r\n        // msg.sender is a Producer\r\n        require(participants[msg.sender].accountType == AccountType.PRODUCER);\r\n\r\n        assetIndex++;\r\n        assets[assetIndex] = Asset(\r\n            now,\r\n            _harvestYear, \r\n            _commodity, \r\n            AssetStatus.CREATED, \r\n            _totalAcer, \r\n            _averageYield, \r\n            _estimatedBasic, \r\n            _cropInsuranceCoverage, \r\n            _productCost);\r\n\r\n        producers[msg.sender].push(assetIndex);\r\n    }\r\n\r\n    function getAllProducers() public view returns (address[]){\r\n        return allProducers;\r\n    }\r\n\r\n    function getAllDistributors() public view returns (address[]){\r\n        return allDistributers;\r\n    }\r\n\r\n    function getAllConsumers() public view returns (address[]){\r\n        return allConsumers;\r\n    }\r\n\r\n    function getAssetsIndex() public view returns (uint[]){\r\n        if(participants[msg.sender].accountType == AccountType.DISTRIBUTOR){\r\n            return distributers[msg.sender];\r\n        }else if(participants[msg.sender].accountType == AccountType.CONSUMER){\r\n            return consumers[msg.sender];\r\n        }else if(participants[msg.sender].accountType == AccountType.PRODUCER){\r\n            return producers[msg.sender];\r\n        }else{\r\n            revert();\r\n        }\r\n    }\r\n\r\n    function sellToDistributor(address _addrDistributor, uint _index) public {\r\n        require(participants[msg.sender].accountType == AccountType.PRODUCER);\r\n        require(participants[_addrDistributor].accountType == AccountType.DISTRIBUTOR);\r\n        require(_index <= assetIndex);\r\n        require(assets[_index].status == AssetStatus.CREATED);\r\n\r\n        assets[_index].status = AssetStatus.SELLING;\r\n        distributers[_addrDistributor].push(_index);\r\n    }\r\n\r\n    function sellToConsumer(address _addrConsumer, uint _index) public {\r\n        require(participants[msg.sender].accountType == AccountType.DISTRIBUTOR);\r\n        require(participants[_addrConsumer].accountType == AccountType.CONSUMER);\r\n        require(_index <= assetIndex);\r\n        require(assets[_index].status == AssetStatus.SELLING);\r\n\r\n        consumers[_addrConsumer].push(_index);\r\n    }\r\n\r\n}\r\n",
  "sourcePath": "C:\\xampp\\htdocs\\BLOCKCHAIN\\agrichain\\contracts\\Agrichain.sol",
  "compiler": {
    "name": "solc",
    "version": "0.4.24+commit.e67f0147.Emscripten.clang"
  },
  "schemaVersion": "2.0.1",
  "updatedAt": "2018-07-04T19:13:55.000Z"
}