{
  "contractName": "Agrichain",
  "abi": [
    {
      "constant": true,
      "inputs": [
        {
          "name": "",
          "type": "address"
        }
      ],
      "name": "participants",
      "outputs": [
        {
          "name": "client",
          "type": "address"
        },
        {
          "name": "email",
          "type": "string"
        },
        {
          "name": "fullname",
          "type": "string"
        },
        {
          "name": "cellnumber",
          "type": "string"
        },
        {
          "name": "password",
          "type": "string"
        },
        {
          "name": "accountType",
          "type": "uint8"
        }
      ],
      "payable": false,
      "stateMutability": "view",
      "type": "function"
    },
    {
      "constant": true,
      "inputs": [
        {
          "name": "",
          "type": "address"
        },
        {
          "name": "",
          "type": "uint256"
        }
      ],
      "name": "producers",
      "outputs": [
        {
          "name": "",
          "type": "uint256"
        }
      ],
      "payable": false,
      "stateMutability": "view",
      "type": "function"
    },
    {
      "constant": true,
      "inputs": [
        {
          "name": "",
          "type": "uint256"
        }
      ],
      "name": "allProducers",
      "outputs": [
        {
          "name": "",
          "type": "address"
        }
      ],
      "payable": false,
      "stateMutability": "view",
      "type": "function"
    },
    {
      "constant": true,
      "inputs": [],
      "name": "version",
      "outputs": [
        {
          "name": "",
          "type": "string"
        }
      ],
      "payable": false,
      "stateMutability": "view",
      "type": "function"
    },
    {
      "constant": true,
      "inputs": [
        {
          "name": "",
          "type": "uint256"
        }
      ],
      "name": "allConsumers",
      "outputs": [
        {
          "name": "",
          "type": "address"
        }
      ],
      "payable": false,
      "stateMutability": "view",
      "type": "function"
    },
    {
      "constant": true,
      "inputs": [],
      "name": "owner",
      "outputs": [
        {
          "name": "",
          "type": "address"
        }
      ],
      "payable": false,
      "stateMutability": "view",
      "type": "function"
    },
    {
      "constant": true,
      "inputs": [
        {
          "name": "",
          "type": "uint256"
        }
      ],
      "name": "allDistributers",
      "outputs": [
        {
          "name": "",
          "type": "address"
        }
      ],
      "payable": false,
      "stateMutability": "view",
      "type": "function"
    },
    {
      "constant": true,
      "inputs": [
        {
          "name": "",
          "type": "address"
        },
        {
          "name": "",
          "type": "uint256"
        }
      ],
      "name": "consumers",
      "outputs": [
        {
          "name": "",
          "type": "uint256"
        }
      ],
      "payable": false,
      "stateMutability": "view",
      "type": "function"
    },
    {
      "constant": true,
      "inputs": [
        {
          "name": "",
          "type": "address"
        },
        {
          "name": "",
          "type": "uint256"
        }
      ],
      "name": "distributers",
      "outputs": [
        {
          "name": "",
          "type": "uint256"
        }
      ],
      "payable": false,
      "stateMutability": "view",
      "type": "function"
    },
    {
      "constant": true,
      "inputs": [
        {
          "name": "",
          "type": "uint256"
        }
      ],
      "name": "assets",
      "outputs": [
        {
          "name": "created",
          "type": "uint256"
        },
        {
          "name": "harvestYear",
          "type": "string"
        },
        {
          "name": "commodity",
          "type": "uint8"
        },
        {
          "name": "status",
          "type": "uint8"
        },
        {
          "name": "totalAcer",
          "type": "string"
        },
        {
          "name": "averageYield",
          "type": "string"
        },
        {
          "name": "estimatedBasic",
          "type": "string"
        },
        {
          "name": "cropInsuranceCoverage",
          "type": "string"
        },
        {
          "name": "productCost",
          "type": "string"
        }
      ],
      "payable": false,
      "stateMutability": "view",
      "type": "function"
    },
    {
      "constant": true,
      "inputs": [],
      "name": "assetIndex",
      "outputs": [
        {
          "name": "",
          "type": "uint256"
        }
      ],
      "payable": false,
      "stateMutability": "view",
      "type": "function"
    },
    {
      "inputs": [],
      "payable": false,
      "stateMutability": "nonpayable",
      "type": "constructor"
    },
    {
      "anonymous": false,
      "inputs": [
        {
          "indexed": true,
          "name": "participants",
          "type": "address"
        }
      ],
      "name": "SignUpComplete",
      "type": "event"
    },
    {
      "constant": false,
      "inputs": [
        {
          "name": "_email",
          "type": "string"
        },
        {
          "name": "_fullname",
          "type": "string"
        },
        {
          "name": "_cellnumber",
          "type": "string"
        },
        {
          "name": "_password",
          "type": "string"
        },
        {
          "name": "_type",
          "type": "uint8"
        }
      ],
      "name": "signup",
      "outputs": [],
      "payable": false,
      "stateMutability": "nonpayable",
      "type": "function"
    },
    {
      "constant": false,
      "inputs": [
        {
          "name": "_harvestYear",
          "type": "string"
        },
        {
          "name": "_commodity",
          "type": "uint8"
        },
        {
          "name": "_totalAcer",
          "type": "string"
        },
        {
          "name": "_averageYield",
          "type": "string"
        },
        {
          "name": "_estimatedBasic",
          "type": "string"
        },
        {
          "name": "_cropInsuranceCoverage",
          "type": "string"
        },
        {
          "name": "_productCost",
          "type": "string"
        }
      ],
      "name": "postAssets",
      "outputs": [],
      "payable": false,
      "stateMutability": "nonpayable",
      "type": "function"
    },
    {
      "constant": true,
      "inputs": [],
      "name": "getAssetsIndex",
      "outputs": [
        {
          "name": "",
          "type": "uint256[]"
        }
      ],
      "payable": false,
      "stateMutability": "view",
      "type": "function"
    },
    {
      "constant": false,
      "inputs": [
        {
          "name": "_addrDistributor",
          "type": "address"
        },
        {
          "name": "_index",
          "type": "uint256"
        }
      ],
      "name": "sellToDistributor",
      "outputs": [],
      "payable": false,
      "stateMutability": "nonpayable",
      "type": "function"
    },
    {
      "constant": false,
      "inputs": [
        {
          "name": "_addrConsumer",
          "type": "address"
        },
        {
          "name": "_index",
          "type": "uint256"
        }
      ],
      "name": "sellToConsumer",
      "outputs": [],
      "payable": false,
      "stateMutability": "nonpayable",
      "type": "function"
    }
  ],
  "bytecode": "0x60806040526040805190810160405280600581526020017f302e302e310000000000000000000000000000000000000000000000000000008152506008908051906020019062000051929190620000a7565b503480156200005f57600080fd5b5033600960006101000a81548173ffffffffffffffffffffffffffffffffffffffff021916908373ffffffffffffffffffffffffffffffffffffffff16021790555062000156565b828054600181600116156101000203166002900490600052602060002090601f016020900481019282601f10620000ea57805160ff19168380011785556200011b565b828001600101855582156200011b579182015b828111156200011a578251825591602001919060010190620000fd565b5b5090506200012a91906200012e565b5090565b6200015391905b808211156200014f57600081600090555060010162000135565b5090565b90565b61236b80620001666000396000f3006080604052600436106100e6576000357c0100000000000000000000000000000000000000000000000000000000900463ffffffff16806309e69ede146100eb57806327d78c691461033357806328e9963014610394578063397734f3146103e157806344a10e351461044e57806354fd4d501461049b57806355cb320f1461052b5780638da5cb5b146105985780638f4368ab146105ef578063a4403b3d1461065c578063add6f41e14610830578063b09d687d14610891578063c83b90e5146108f2578063cc5b68b71461095e578063cf35bdd014610aa6578063e07b098a14610d99575b600080fd5b3480156100f757600080fd5b5061012c600480360381019080803573ffffffffffffffffffffffffffffffffffffffff169060200190929190505050610dc4565b604051808773ffffffffffffffffffffffffffffffffffffffff1673ffffffffffffffffffffffffffffffffffffffff1681526020018060200180602001806020018060200186600281111561017e57fe5b60ff16815260200185810385528a818151815260200191508051906020019080838360005b838110156101be5780820151818401526020810190506101a3565b50505050905090810190601f1680156101eb5780820380516001836020036101000a031916815260200191505b50858103845289818151815260200191508051906020019080838360005b83811015610224578082015181840152602081019050610209565b50505050905090810190601f1680156102515780820380516001836020036101000a031916815260200191505b50858103835288818151815260200191508051906020019080838360005b8381101561028a57808201518184015260208101905061026f565b50505050905090810190601f1680156102b75780820380516001836020036101000a031916815260200191505b50858103825287818151815260200191508051906020019080838360005b838110156102f05780820151818401526020810190506102d5565b50505050905090810190601f16801561031d5780820380516001836020036101000a031916815260200191505b509a505050505050505050505060405180910390f35b34801561033f57600080fd5b5061037e600480360381019080803573ffffffffffffffffffffffffffffffffffffffff1690602001909291908035906020019092919050505061108d565b6040518082815260200191505060405180910390f35b3480156103a057600080fd5b506103df600480360381019080803573ffffffffffffffffffffffffffffffffffffffff169060200190929190803590602001909291905050506110bd565b005b3480156103ed57600080fd5b5061040c600480360381019080803590602001909291905050506111f5565b604051808273ffffffffffffffffffffffffffffffffffffffff1673ffffffffffffffffffffffffffffffffffffffff16815260200191505060405180910390f35b34801561045a57600080fd5b50610499600480360381019080803573ffffffffffffffffffffffffffffffffffffffff16906020019092919080359060200190929190505050611233565b005b3480156104a757600080fd5b506104b06113a4565b6040518080602001828103825283818151815260200191508051906020019080838360005b838110156104f05780820151818401526020810190506104d5565b50505050905090810190601f16801561051d5780820380516001836020036101000a031916815260200191505b509250505060405180910390f35b34801561053757600080fd5b5061055660048036038101908080359060200190929190505050611442565b604051808273ffffffffffffffffffffffffffffffffffffffff1673ffffffffffffffffffffffffffffffffffffffff16815260200191505060405180910390f35b3480156105a457600080fd5b506105ad611480565b604051808273ffffffffffffffffffffffffffffffffffffffff1673ffffffffffffffffffffffffffffffffffffffff16815260200191505060405180910390f35b3480156105fb57600080fd5b5061061a600480360381019080803590602001909291905050506114a6565b604051808273ffffffffffffffffffffffffffffffffffffffff1673ffffffffffffffffffffffffffffffffffffffff16815260200191505060405180910390f35b34801561066857600080fd5b5061082e600480360381019080803590602001908201803590602001908080601f0160208091040260200160405190810160405280939291908181526020018383808284378201915050505050509192919290803560ff169060200190929190803590602001908201803590602001908080601f0160208091040260200160405190810160405280939291908181526020018383808284378201915050505050509192919290803590602001908201803590602001908080601f0160208091040260200160405190810160405280939291908181526020018383808284378201915050505050509192919290803590602001908201803590602001908080601f0160208091040260200160405190810160405280939291908181526020018383808284378201915050505050509192919290803590602001908201803590602001908080601f0160208091040260200160405190810160405280939291908181526020018383808284378201915050505050509192919290803590602001908201803590602001908080601f01602080910402602001604051908101604052809392919081815260200183838082843782019150505050505091929192905050506114e4565b005b34801561083c57600080fd5b5061087b600480360381019080803573ffffffffffffffffffffffffffffffffffffffff16906020019092919080359060200190929190505050611758565b6040518082815260200191505060405180910390f35b34801561089d57600080fd5b506108dc600480360381019080803573ffffffffffffffffffffffffffffffffffffffff16906020019092919080359060200190929190505050611788565b6040518082815260200191505060405180910390f35b3480156108fe57600080fd5b506109076117b8565b6040518080602001828103825283818151815260200191508051906020019060200280838360005b8381101561094a57808201518184015260208101905061092f565b505050509050019250505060405180910390f35b34801561096a57600080fd5b50610aa4600480360381019080803590602001908201803590602001908080601f0160208091040260200160405190810160405280939291908181526020018383808284378201915050505050509192919290803590602001908201803590602001908080601f0160208091040260200160405190810160405280939291908181526020018383808284378201915050505050509192919290803590602001908201803590602001908080601f0160208091040260200160405190810160405280939291908181526020018383808284378201915050505050509192919290803590602001908201803590602001908080601f0160208091040260200160405190810160405280939291908181526020018383808284378201915050505050509192919290803560ff169060200190929190505050611ac7565b005b348015610ab257600080fd5b50610ad160048036038101908080359060200190929190505050611e9c565b604051808a815260200180602001896006811115610aeb57fe5b60ff168152602001886003811115610aff57fe5b60ff168152602001806020018060200180602001806020018060200187810387528f818151815260200191508051906020019080838360005b83811015610b53578082015181840152602081019050610b38565b50505050905090810190601f168015610b805780820380516001836020036101000a031916815260200191505b5087810386528c818151815260200191508051906020019080838360005b83811015610bb9578082015181840152602081019050610b9e565b50505050905090810190601f168015610be65780820380516001836020036101000a031916815260200191505b5087810385528b818151815260200191508051906020019080838360005b83811015610c1f578082015181840152602081019050610c04565b50505050905090810190601f168015610c4c5780820380516001836020036101000a031916815260200191505b5087810384528a818151815260200191508051906020019080838360005b83811015610c85578082015181840152602081019050610c6a565b50505050905090810190601f168015610cb25780820380516001836020036101000a031916815260200191505b50878103835289818151815260200191508051906020019080838360005b83811015610ceb578082015181840152602081019050610cd0565b50505050905090810190601f168015610d185780820380516001836020036101000a031916815260200191505b50878103825288818151815260200191508051906020019080838360005b83811015610d51578082015181840152602081019050610d36565b50505050905090810190601f168015610d7e5780820380516001836020036101000a031916815260200191505b509f5050505050505050505050505050505060405180910390f35b348015610da557600080fd5b50610dae612294565b6040518082815260200191505060405180910390f35b60006020528060005260406000206000915090508060000160009054906101000a900473ffffffffffffffffffffffffffffffffffffffff1690806001018054600181600116156101000203166002900480601f016020809104026020016040519081016040528092919081815260200182805460018160011615610100020316600290048015610e965780601f10610e6b57610100808354040283529160200191610e96565b820191906000526020600020905b815481529060010190602001808311610e7957829003601f168201915b505050505090806002018054600181600116156101000203166002900480601f016020809104026020016040519081016040528092919081815260200182805460018160011615610100020316600290048015610f345780601f10610f0957610100808354040283529160200191610f34565b820191906000526020600020905b815481529060010190602001808311610f1757829003601f168201915b505050505090806003018054600181600116156101000203166002900480601f016020809104026020016040519081016040528092919081815260200182805460018160011615610100020316600290048015610fd25780601f10610fa757610100808354040283529160200191610fd2565b820191906000526020600020905b815481529060010190602001808311610fb557829003601f168201915b505050505090806004018054600181600116156101000203166002900480601f0160208091040260200160405190810160405280929190818152602001828054600181600116156101000203166002900480156110705780601f1061104557610100808354040283529160200191611070565b820191906000526020600020905b81548152906001019060200180831161105357829003601f168201915b5050505050908060050160009054906101000a900460ff16905086565b6002602052816000526040600020818154811015156110a857fe5b90600052602060002001600091509150505481565b6002808111156110c957fe5b6000808473ffffffffffffffffffffffffffffffffffffffff1673ffffffffffffffffffffffffffffffffffffffff16815260200190815260200160002060050160009054906101000a900460ff16600281111561112357fe5b14151561112f57600080fd5b600a54811115151561114057600080fd5b6002600381111561114d57fe5b6001600083815260200190815260200160002060020160019054906101000a900460ff16600381111561117c57fe5b14151561118857600080fd5b600360008373ffffffffffffffffffffffffffffffffffffffff1673ffffffffffffffffffffffffffffffffffffffff1681526020019081526020016000208190806001815401808255809150509060018203906000526020600020016000909192909190915055505050565b60058181548110151561120457fe5b906000526020600020016000915054906101000a900473ffffffffffffffffffffffffffffffffffffffff1681565b6001600281111561124057fe5b6000808473ffffffffffffffffffffffffffffffffffffffff1673ffffffffffffffffffffffffffffffffffffffff16815260200190815260200160002060050160009054906101000a900460ff16600281111561129a57fe5b1415156112a657600080fd5b600a5481111515156112b757600080fd5b600060038111156112c457fe5b6001600083815260200190815260200160002060020160019054906101000a900460ff1660038111156112f357fe5b1415156112ff57600080fd5b60026001600083815260200190815260200160002060020160016101000a81548160ff0219169083600381111561133257fe5b0217905550600360008373ffffffffffffffffffffffffffffffffffffffff1673ffffffffffffffffffffffffffffffffffffffff1681526020019081526020016000208190806001815401808255809150509060018203906000526020600020016000909192909190915055505050565b60088054600181600116156101000203166002900480601f01602080910402602001604051908101604052809291908181526020018280546001816001161561010002031660029004801561143a5780601f1061140f5761010080835404028352916020019161143a565b820191906000526020600020905b81548152906001019060200180831161141d57829003601f168201915b505050505081565b60078181548110151561145157fe5b906000526020600020016000915054906101000a900473ffffffffffffffffffffffffffffffffffffffff1681565b600960009054906101000a900473ffffffffffffffffffffffffffffffffffffffff1681565b6006818154811015156114b557fe5b906000526020600020016000915054906101000a900473ffffffffffffffffffffffffffffffffffffffff1681565b600060028111156114f157fe5b6000803373ffffffffffffffffffffffffffffffffffffffff1673ffffffffffffffffffffffffffffffffffffffff16815260200190815260200160002060050160009054906101000a900460ff16600281111561154b57fe5b14151561155757600080fd5b600a600081548092919060010191905055506101206040519081016040528042815260200188815260200187600681111561158e57fe5b8152602001600060038111156115a057fe5b81526020018681526020018581526020018481526020018381526020018281525060016000600a5481526020019081526020016000206000820151816000015560208201518160010190805190602001906115fc92919061229a565b5060408201518160020160006101000a81548160ff0219169083600681111561162157fe5b021790555060608201518160020160016101000a81548160ff0219169083600381111561164a57fe5b0217905550608082015181600301908051906020019061166b92919061229a565b5060a082015181600401908051906020019061168892919061229a565b5060c08201518160050190805190602001906116a592919061229a565b5060e08201518160060190805190602001906116c292919061229a565b506101008201518160070190805190602001906116e092919061229a565b50905050600260003373ffffffffffffffffffffffffffffffffffffffff1673ffffffffffffffffffffffffffffffffffffffff168152602001908152602001600020600a54908060018154018082558091505090600182039060005260206000200160009091929091909150555050505050505050565b60046020528160005260406000208181548110151561177357fe5b90600052602060002001600091509150505481565b6003602052816000526040600020818154811015156117a357fe5b90600052602060002001600091509150505481565b6060600160028111156117c757fe5b6000803373ffffffffffffffffffffffffffffffffffffffff1673ffffffffffffffffffffffffffffffffffffffff16815260200190815260200160002060050160009054906101000a900460ff16600281111561182157fe5b14156118bc57600360003373ffffffffffffffffffffffffffffffffffffffff1673ffffffffffffffffffffffffffffffffffffffff1681526020019081526020016000208054806020026020016040519081016040528092919081815260200182805480156118b057602002820191906000526020600020905b81548152602001906001019080831161189c575b50505050509050611ac4565b6002808111156118c857fe5b6000803373ffffffffffffffffffffffffffffffffffffffff1673ffffffffffffffffffffffffffffffffffffffff16815260200190815260200160002060050160009054906101000a900460ff16600281111561192257fe5b14156119bd57600460003373ffffffffffffffffffffffffffffffffffffffff1673ffffffffffffffffffffffffffffffffffffffff1681526020019081526020016000208054806020026020016040519081016040528092919081815260200182805480156119b157602002820191906000526020600020905b81548152602001906001019080831161199d575b50505050509050611ac4565b600060028111156119ca57fe5b6000803373ffffffffffffffffffffffffffffffffffffffff1673ffffffffffffffffffffffffffffffffffffffff16815260200190815260200160002060050160009054906101000a900460ff166002811115611a2457fe5b1415611abf57600260003373ffffffffffffffffffffffffffffffffffffffff1673ffffffffffffffffffffffffffffffffffffffff168152602001908152602001600020805480602002602001604051908101604052809291908181526020018280548015611ab357602002820191906000526020600020905b815481526020019060010190808311611a9f575b50505050509050611ac4565b600080fd5b90565b6000803373ffffffffffffffffffffffffffffffffffffffff1673ffffffffffffffffffffffffffffffffffffffff16815260200190815260200160002060000160009054906101000a900473ffffffffffffffffffffffffffffffffffffffff1673ffffffffffffffffffffffffffffffffffffffff163373ffffffffffffffffffffffffffffffffffffffff1614151515611b6357600080fd5b60c0604051908101604052803373ffffffffffffffffffffffffffffffffffffffff168152602001868152602001858152602001848152602001838152602001826002811115611baf57fe5b8152506000803373ffffffffffffffffffffffffffffffffffffffff1673ffffffffffffffffffffffffffffffffffffffff16815260200190815260200160002060008201518160000160006101000a81548173ffffffffffffffffffffffffffffffffffffffff021916908373ffffffffffffffffffffffffffffffffffffffff1602179055506020820151816001019080519060200190611c5392919061229a565b506040820151816002019080519060200190611c7092919061229a565b506060820151816003019080519060200190611c8d92919061229a565b506080820151816004019080519060200190611caa92919061229a565b5060a08201518160050160006101000a81548160ff02191690836002811115611ccf57fe5b0217905550905050806002811115611ce357fe5b60016002811115611cf057fe5b1415611d615760063390806001815401808255809150509060018203906000526020600020016000909192909190916101000a81548173ffffffffffffffffffffffffffffffffffffffff021916908373ffffffffffffffffffffffffffffffffffffffff16021790555050611e52565b806002811115611d6d57fe5b600280811115611d7957fe5b1415611dea5760073390806001815401808255809150509060018203906000526020600020016000909192909190916101000a81548173ffffffffffffffffffffffffffffffffffffffff021916908373ffffffffffffffffffffffffffffffffffffffff16021790555050611e51565b60053390806001815401808255809150509060018203906000526020600020016000909192909190916101000a81548173ffffffffffffffffffffffffffffffffffffffff021916908373ffffffffffffffffffffffffffffffffffffffff160217905550505b5b3373ffffffffffffffffffffffffffffffffffffffff167fc4981db434777d6b4d01d581b49070b1e1b8efe35404244657762855d442e1d160405160405180910390a25050505050565b6001602052806000526040600020600091509050806000015490806001018054600181600116156101000203166002900480601f016020809104026020016040519081016040528092919081815260200182805460018160011615610100020316600290048015611f4e5780601f10611f2357610100808354040283529160200191611f4e565b820191906000526020600020905b815481529060010190602001808311611f3157829003601f168201915b5050505050908060020160009054906101000a900460ff16908060020160019054906101000a900460ff1690806003018054600181600116156101000203166002900480601f0160208091040260200160405190810160405280929190818152602001828054600181600116156101000203166002900480156120125780601f10611fe757610100808354040283529160200191612012565b820191906000526020600020905b815481529060010190602001808311611ff557829003601f168201915b505050505090806004018054600181600116156101000203166002900480601f0160208091040260200160405190810160405280929190818152602001828054600181600116156101000203166002900480156120b05780601f10612085576101008083540402835291602001916120b0565b820191906000526020600020905b81548152906001019060200180831161209357829003601f168201915b505050505090806005018054600181600116156101000203166002900480601f01602080910402602001604051908101604052809291908181526020018280546001816001161561010002031660029004801561214e5780601f106121235761010080835404028352916020019161214e565b820191906000526020600020905b81548152906001019060200180831161213157829003601f168201915b505050505090806006018054600181600116156101000203166002900480601f0160208091040260200160405190810160405280929190818152602001828054600181600116156101000203166002900480156121ec5780601f106121c1576101008083540402835291602001916121ec565b820191906000526020600020905b8154815290600101906020018083116121cf57829003601f168201915b505050505090806007018054600181600116156101000203166002900480601f01602080910402602001604051908101604052809291908181526020018280546001816001161561010002031660029004801561228a5780601f1061225f5761010080835404028352916020019161228a565b820191906000526020600020905b81548152906001019060200180831161226d57829003601f168201915b5050505050905089565b600a5481565b828054600181600116156101000203166002900490600052602060002090601f016020900481019282601f106122db57805160ff1916838001178555612309565b82800160010185558215612309579182015b828111156123085782518255916020019190600101906122ed565b5b509050612316919061231a565b5090565b61233c91905b80821115612338576000816000905550600101612320565b5090565b905600a165627a7a72305820b6cb438589fec96e80fb61d61d6c639972860d3d1491b29adeaf3a4e8a86b9d50029",
  "source": "pragma solidity ^0.4.23;\r\n\r\n/* TODO: decentralized neuroscience */\r\n\r\n\r\ncontract Agrichain {\r\n\r\n    \r\n    enum AccountType { PRODUCER, DISTRIBUTOR, CONSUMER }\r\n    enum CommodityType { POTATO, APPLES, STRAWBERRY, BLUEBERRY, BLUEB, WHEAT, OAT }\r\n    enum AssetStatus { CREATED, IN_TRANSIT, SELLING, SOLD }\r\n\r\n    struct ParticipantDetail {\r\n        address client;\r\n        string email;\r\n        string fullname;\r\n        string cellnumber;\r\n        string password;\r\n        AccountType accountType;\r\n    }\r\n\r\n    struct Asset {\r\n        uint256 created;\r\n        string harvestYear;\r\n        CommodityType commodity;\r\n        AssetStatus status;\r\n        string totalAcer;\r\n        string averageYield;\r\n        string estimatedBasic;\r\n        string cropInsuranceCoverage;\r\n        string productCost;\r\n    }\r\n\r\n    \r\n\r\n    mapping(address => ParticipantDetail) public participants;\r\n    mapping(uint => Asset) public assets;\r\n    mapping(address => uint[]) public producers;\r\n    mapping(address => uint[]) public distributers;\r\n    mapping(address => uint[]) public consumers;\r\n\r\n    address[] public allProducers;\r\n    address[] public allDistributers;\r\n    address[] public allConsumers;\r\n\r\n    string public version = \"0.0.1\";\r\n    address public owner;\r\n    uint public assetIndex;\r\n\r\n    // EVENTS\r\n\r\n    event SignUpComplete(address indexed participants);\r\n    \r\n\r\n    modifier onlyOwner() {\r\n        require(msg.sender == owner);\r\n        _;\r\n    }\r\n\r\n    constructor() public {\r\n        owner = msg.sender;\r\n    }\r\n\r\n    function signup(string _email, string _fullname, string _cellnumber, string _password, AccountType _type) public {\r\n        require(msg.sender != participants[msg.sender].client);\r\n\r\n        participants[msg.sender] = ParticipantDetail(msg.sender, _email, _fullname, _cellnumber, _password, _type);\r\n\r\n        if(AccountType.DISTRIBUTOR == _type){\r\n            allDistributers.push(msg.sender);\r\n        }else if(AccountType.CONSUMER == _type){\r\n            allConsumers.push(msg.sender);\r\n        }else {\r\n            allProducers.push(msg.sender);\r\n        }\r\n\r\n        emit SignUpComplete(msg.sender);\r\n    }\r\n\r\n    function postAssets(\r\n        string _harvestYear,\r\n        CommodityType _commodity,\r\n        string _totalAcer, \r\n        string _averageYield, \r\n        string _estimatedBasic, \r\n        string _cropInsuranceCoverage, \r\n        string _productCost) public {\r\n\r\n        // msg.sender is a Producer\r\n        require(participants[msg.sender].accountType == AccountType.PRODUCER);\r\n\r\n        assetIndex++;\r\n        assets[assetIndex] = Asset(\r\n            now,\r\n            _harvestYear, \r\n            _commodity, \r\n            AssetStatus.CREATED, \r\n            _totalAcer, \r\n            _averageYield, \r\n            _estimatedBasic, \r\n            _cropInsuranceCoverage, \r\n            _productCost);\r\n\r\n        producers[msg.sender].push(assetIndex);\r\n    }\r\n\r\n    function getAssetsIndex() public view returns (uint[]){\r\n        if(participants[msg.sender].accountType == AccountType.DISTRIBUTOR){\r\n            return distributers[msg.sender];\r\n        }else if(participants[msg.sender].accountType == AccountType.CONSUMER){\r\n            return consumers[msg.sender];\r\n        }else if(participants[msg.sender].accountType == AccountType.PRODUCER){\r\n            return producers[msg.sender];\r\n        }else{\r\n            revert();\r\n        }\r\n    }\r\n\r\n    function sellToDistributor(address _addrDistributor, uint _index) public {\r\n        //require(participants[msg.sender].accountType == AccountType.PRODUCER);\r\n        require(participants[_addrDistributor].accountType == AccountType.DISTRIBUTOR);\r\n        require(_index <= assetIndex);\r\n        require(assets[_index].status == AssetStatus.CREATED);\r\n\r\n        assets[_index].status = AssetStatus.SELLING;\r\n        distributers[_addrDistributor].push(_index);\r\n    }\r\n\r\n    function sellToConsumer(address _addrConsumer, uint _index) public {\r\n        //require(participants[msg.sender].accountType == AccountType.PRODUCER);\r\n        require(participants[_addrConsumer].accountType == AccountType.CONSUMER);\r\n        require(_index <= assetIndex);\r\n        require(assets[_index].status == AssetStatus.SELLING);\r\n\r\n        distributers[_addrConsumer].push(_index);\r\n    }\r\n\r\n}\r\n",
  "sourcePath": "C:\\xampp\\htdocs\\BLOCKCHAIN\\agrichain\\contracts\\Agrichain.sol",
  "compiler": {
    "name": "solc",
    "version": "0.4.24+commit.e67f0147.Emscripten.clang"
  },
  "schemaVersion": "2.0.1",
  "updatedAt": "2018-07-04T00:18:02.261Z"
}