{
  "contractName": "Agrichain",
  "abi": [
    {
      "constant": true,
      "inputs": [
        {
          "name": "",
          "type": "address"
        }
      ],
      "name": "participants",
      "outputs": [
        {
          "name": "client",
          "type": "address"
        },
        {
          "name": "email",
          "type": "string"
        },
        {
          "name": "fullname",
          "type": "string"
        },
        {
          "name": "cellnumber",
          "type": "string"
        },
        {
          "name": "password",
          "type": "string"
        },
        {
          "name": "accountType",
          "type": "uint8"
        }
      ],
      "payable": false,
      "stateMutability": "view",
      "type": "function"
    },
    {
      "constant": true,
      "inputs": [
        {
          "name": "",
          "type": "address"
        },
        {
          "name": "",
          "type": "uint256"
        }
      ],
      "name": "producers",
      "outputs": [
        {
          "name": "",
          "type": "uint256"
        }
      ],
      "payable": false,
      "stateMutability": "view",
      "type": "function"
    },
    {
      "constant": true,
      "inputs": [],
      "name": "version",
      "outputs": [
        {
          "name": "",
          "type": "string"
        }
      ],
      "payable": false,
      "stateMutability": "view",
      "type": "function"
    },
    {
      "constant": true,
      "inputs": [],
      "name": "owner",
      "outputs": [
        {
          "name": "",
          "type": "address"
        }
      ],
      "payable": false,
      "stateMutability": "view",
      "type": "function"
    },
    {
      "constant": true,
      "inputs": [
        {
          "name": "",
          "type": "address"
        },
        {
          "name": "",
          "type": "uint256"
        }
      ],
      "name": "consumers",
      "outputs": [
        {
          "name": "",
          "type": "uint256"
        }
      ],
      "payable": false,
      "stateMutability": "view",
      "type": "function"
    },
    {
      "constant": true,
      "inputs": [
        {
          "name": "",
          "type": "address"
        },
        {
          "name": "",
          "type": "uint256"
        }
      ],
      "name": "distributers",
      "outputs": [
        {
          "name": "",
          "type": "uint256"
        }
      ],
      "payable": false,
      "stateMutability": "view",
      "type": "function"
    },
    {
      "constant": true,
      "inputs": [
        {
          "name": "",
          "type": "uint256"
        }
      ],
      "name": "assets",
      "outputs": [
        {
          "name": "created",
          "type": "uint256"
        },
        {
          "name": "harvestYear",
          "type": "string"
        },
        {
          "name": "commodity",
          "type": "uint8"
        },
        {
          "name": "status",
          "type": "uint8"
        },
        {
          "name": "totalAcer",
          "type": "string"
        },
        {
          "name": "averageYield",
          "type": "string"
        },
        {
          "name": "estimatedBasic",
          "type": "string"
        },
        {
          "name": "cropInsuranceCoverage",
          "type": "string"
        },
        {
          "name": "productCost",
          "type": "string"
        }
      ],
      "payable": false,
      "stateMutability": "view",
      "type": "function"
    },
    {
      "constant": true,
      "inputs": [],
      "name": "assetIndex",
      "outputs": [
        {
          "name": "",
          "type": "uint256"
        }
      ],
      "payable": false,
      "stateMutability": "view",
      "type": "function"
    },
    {
      "inputs": [],
      "payable": false,
      "stateMutability": "nonpayable",
      "type": "constructor"
    },
    {
      "constant": false,
      "inputs": [
        {
          "name": "_email",
          "type": "string"
        },
        {
          "name": "_fullname",
          "type": "string"
        },
        {
          "name": "_cellnumber",
          "type": "string"
        },
        {
          "name": "_password",
          "type": "string"
        },
        {
          "name": "_type",
          "type": "uint8"
        }
      ],
      "name": "signup",
      "outputs": [],
      "payable": false,
      "stateMutability": "nonpayable",
      "type": "function"
    },
    {
      "constant": false,
      "inputs": [
        {
          "name": "_harvestYear",
          "type": "string"
        },
        {
          "name": "_commodity",
          "type": "uint8"
        },
        {
          "name": "_totalAcer",
          "type": "string"
        },
        {
          "name": "_averageYield",
          "type": "string"
        },
        {
          "name": "_estimatedBasic",
          "type": "string"
        },
        {
          "name": "_cropInsuranceCoverage",
          "type": "string"
        },
        {
          "name": "_productCost",
          "type": "string"
        }
      ],
      "name": "postAssets",
      "outputs": [],
      "payable": false,
      "stateMutability": "nonpayable",
      "type": "function"
    },
    {
      "constant": true,
      "inputs": [],
      "name": "getAssetsIndex",
      "outputs": [
        {
          "name": "",
          "type": "uint256[]"
        }
      ],
      "payable": false,
      "stateMutability": "view",
      "type": "function"
    },
    {
      "constant": false,
      "inputs": [
        {
          "name": "_addrDistributor",
          "type": "address"
        },
        {
          "name": "_index",
          "type": "uint256"
        }
      ],
      "name": "sellToDistributor",
      "outputs": [],
      "payable": false,
      "stateMutability": "nonpayable",
      "type": "function"
    }
  ],
  "bytecode": "0x60806040526040805190810160405280600581526020017f302e302e310000000000000000000000000000000000000000000000000000008152506005908051906020019062000051929190620000a7565b503480156200005f57600080fd5b5033600660006101000a81548173ffffffffffffffffffffffffffffffffffffffff021916908373ffffffffffffffffffffffffffffffffffffffff16021790555062000156565b828054600181600116156101000203166002900490600052602060002090601f016020900481019282601f10620000ea57805160ff19168380011785556200011b565b828001600101855582156200011b579182015b828111156200011a578251825591602001919060010190620000fd565b5b5090506200012a91906200012e565b5090565b6200015391905b808211156200014f57600081600090555060010162000135565b5090565b90565b611e6e80620001666000396000f3006080604052600436106100ba576000357c0100000000000000000000000000000000000000000000000000000000900463ffffffff16806309e69ede146100bf57806327d78c691461030757806344a10e351461036857806354fd4d50146103b55780638da5cb5b14610445578063a4403b3d1461049c578063add6f41e14610670578063b09d687d146106d1578063c83b90e514610732578063cc5b68b71461079e578063cf35bdd0146108e6578063e07b098a14610bd9575b600080fd5b3480156100cb57600080fd5b50610100600480360381019080803573ffffffffffffffffffffffffffffffffffffffff169060200190929190505050610c04565b604051808773ffffffffffffffffffffffffffffffffffffffff1673ffffffffffffffffffffffffffffffffffffffff1681526020018060200180602001806020018060200186600281111561015257fe5b60ff16815260200185810385528a818151815260200191508051906020019080838360005b83811015610192578082015181840152602081019050610177565b50505050905090810190601f1680156101bf5780820380516001836020036101000a031916815260200191505b50858103845289818151815260200191508051906020019080838360005b838110156101f85780820151818401526020810190506101dd565b50505050905090810190601f1680156102255780820380516001836020036101000a031916815260200191505b50858103835288818151815260200191508051906020019080838360005b8381101561025e578082015181840152602081019050610243565b50505050905090810190601f16801561028b5780820380516001836020036101000a031916815260200191505b50858103825287818151815260200191508051906020019080838360005b838110156102c45780820151818401526020810190506102a9565b50505050905090810190601f1680156102f15780820380516001836020036101000a031916815260200191505b509a505050505050505050505060405180910390f35b34801561031357600080fd5b50610352600480360381019080803573ffffffffffffffffffffffffffffffffffffffff16906020019092919080359060200190929190505050610ecd565b6040518082815260200191505060405180910390f35b34801561037457600080fd5b506103b3600480360381019080803573ffffffffffffffffffffffffffffffffffffffff16906020019092919080359060200190929190505050610efd565b005b3480156103c157600080fd5b506103ca6110e1565b6040518080602001828103825283818151815260200191508051906020019080838360005b8381101561040a5780820151818401526020810190506103ef565b50505050905090810190601f1680156104375780820380516001836020036101000a031916815260200191505b509250505060405180910390f35b34801561045157600080fd5b5061045a61117f565b604051808273ffffffffffffffffffffffffffffffffffffffff1673ffffffffffffffffffffffffffffffffffffffff16815260200191505060405180910390f35b3480156104a857600080fd5b5061066e600480360381019080803590602001908201803590602001908080601f0160208091040260200160405190810160405280939291908181526020018383808284378201915050505050509192919290803560ff169060200190929190803590602001908201803590602001908080601f0160208091040260200160405190810160405280939291908181526020018383808284378201915050505050509192919290803590602001908201803590602001908080601f0160208091040260200160405190810160405280939291908181526020018383808284378201915050505050509192919290803590602001908201803590602001908080601f0160208091040260200160405190810160405280939291908181526020018383808284378201915050505050509192919290803590602001908201803590602001908080601f0160208091040260200160405190810160405280939291908181526020018383808284378201915050505050509192919290803590602001908201803590602001908080601f01602080910402602001604051908101604052809392919081815260200183838082843782019150505050505091929192905050506111a5565b005b34801561067c57600080fd5b506106bb600480360381019080803573ffffffffffffffffffffffffffffffffffffffff16906020019092919080359060200190929190505050611419565b6040518082815260200191505060405180910390f35b3480156106dd57600080fd5b5061071c600480360381019080803573ffffffffffffffffffffffffffffffffffffffff16906020019092919080359060200190929190505050611449565b6040518082815260200191505060405180910390f35b34801561073e57600080fd5b50610747611479565b6040518080602001828103825283818151815260200191508051906020019060200280838360005b8381101561078a57808201518184015260208101905061076f565b505050509050019250505060405180910390f35b3480156107aa57600080fd5b506108e4600480360381019080803590602001908201803590602001908080601f0160208091040260200160405190810160405280939291908181526020018383808284378201915050505050509192919290803590602001908201803590602001908080601f0160208091040260200160405190810160405280939291908181526020018383808284378201915050505050509192919290803590602001908201803590602001908080601f0160208091040260200160405190810160405280939291908181526020018383808284378201915050505050509192919290803590602001908201803590602001908080601f0160208091040260200160405190810160405280939291908181526020018383808284378201915050505050509192919290803560ff169060200190929190505050611788565b005b3480156108f257600080fd5b506109116004803603810190808035906020019092919050505061199f565b604051808a81526020018060200189600681111561092b57fe5b60ff16815260200188600381111561093f57fe5b60ff168152602001806020018060200180602001806020018060200187810387528f818151815260200191508051906020019080838360005b83811015610993578082015181840152602081019050610978565b50505050905090810190601f1680156109c05780820380516001836020036101000a031916815260200191505b5087810386528c818151815260200191508051906020019080838360005b838110156109f95780820151818401526020810190506109de565b50505050905090810190601f168015610a265780820380516001836020036101000a031916815260200191505b5087810385528b818151815260200191508051906020019080838360005b83811015610a5f578082015181840152602081019050610a44565b50505050905090810190601f168015610a8c5780820380516001836020036101000a031916815260200191505b5087810384528a818151815260200191508051906020019080838360005b83811015610ac5578082015181840152602081019050610aaa565b50505050905090810190601f168015610af25780820380516001836020036101000a031916815260200191505b50878103835289818151815260200191508051906020019080838360005b83811015610b2b578082015181840152602081019050610b10565b50505050905090810190601f168015610b585780820380516001836020036101000a031916815260200191505b50878103825288818151815260200191508051906020019080838360005b83811015610b91578082015181840152602081019050610b76565b50505050905090810190601f168015610bbe5780820380516001836020036101000a031916815260200191505b509f5050505050505050505050505050505060405180910390f35b348015610be557600080fd5b50610bee611d97565b6040518082815260200191505060405180910390f35b60006020528060005260406000206000915090508060000160009054906101000a900473ffffffffffffffffffffffffffffffffffffffff1690806001018054600181600116156101000203166002900480601f016020809104026020016040519081016040528092919081815260200182805460018160011615610100020316600290048015610cd65780601f10610cab57610100808354040283529160200191610cd6565b820191906000526020600020905b815481529060010190602001808311610cb957829003601f168201915b505050505090806002018054600181600116156101000203166002900480601f016020809104026020016040519081016040528092919081815260200182805460018160011615610100020316600290048015610d745780601f10610d4957610100808354040283529160200191610d74565b820191906000526020600020905b815481529060010190602001808311610d5757829003601f168201915b505050505090806003018054600181600116156101000203166002900480601f016020809104026020016040519081016040528092919081815260200182805460018160011615610100020316600290048015610e125780601f10610de757610100808354040283529160200191610e12565b820191906000526020600020905b815481529060010190602001808311610df557829003601f168201915b505050505090806004018054600181600116156101000203166002900480601f016020809104026020016040519081016040528092919081815260200182805460018160011615610100020316600290048015610eb05780601f10610e8557610100808354040283529160200191610eb0565b820191906000526020600020905b815481529060010190602001808311610e9357829003601f168201915b5050505050908060050160009054906101000a900460ff16905086565b600260205281600052604060002081815481101515610ee857fe5b90600052602060002001600091509150505481565b60006002811115610f0a57fe5b6000803373ffffffffffffffffffffffffffffffffffffffff1673ffffffffffffffffffffffffffffffffffffffff16815260200190815260200160002060050160009054906101000a900460ff166002811115610f6457fe5b141515610f7057600080fd5b60016002811115610f7d57fe5b6000808473ffffffffffffffffffffffffffffffffffffffff1673ffffffffffffffffffffffffffffffffffffffff16815260200190815260200160002060050160009054906101000a900460ff166002811115610fd757fe5b141515610fe357600080fd5b6007548111151515610ff457600080fd5b6000600381111561100157fe5b6001600083815260200190815260200160002060020160019054906101000a900460ff16600381111561103057fe5b14151561103c57600080fd5b60026001600083815260200190815260200160002060020160016101000a81548160ff0219169083600381111561106f57fe5b0217905550600360008373ffffffffffffffffffffffffffffffffffffffff1673ffffffffffffffffffffffffffffffffffffffff1681526020019081526020016000208190806001815401808255809150509060018203906000526020600020016000909192909190915055505050565b60058054600181600116156101000203166002900480601f0160208091040260200160405190810160405280929190818152602001828054600181600116156101000203166002900480156111775780601f1061114c57610100808354040283529160200191611177565b820191906000526020600020905b81548152906001019060200180831161115a57829003601f168201915b505050505081565b600660009054906101000a900473ffffffffffffffffffffffffffffffffffffffff1681565b600060028111156111b257fe5b6000803373ffffffffffffffffffffffffffffffffffffffff1673ffffffffffffffffffffffffffffffffffffffff16815260200190815260200160002060050160009054906101000a900460ff16600281111561120c57fe5b14151561121857600080fd5b6007600081548092919060010191905055506101206040519081016040528042815260200188815260200187600681111561124f57fe5b81526020016000600381111561126157fe5b8152602001868152602001858152602001848152602001838152602001828152506001600060075481526020019081526020016000206000820151816000015560208201518160010190805190602001906112bd929190611d9d565b5060408201518160020160006101000a81548160ff021916908360068111156112e257fe5b021790555060608201518160020160016101000a81548160ff0219169083600381111561130b57fe5b0217905550608082015181600301908051906020019061132c929190611d9d565b5060a0820151816004019080519060200190611349929190611d9d565b5060c0820151816005019080519060200190611366929190611d9d565b5060e0820151816006019080519060200190611383929190611d9d565b506101008201518160070190805190602001906113a1929190611d9d565b50905050600260003373ffffffffffffffffffffffffffffffffffffffff1673ffffffffffffffffffffffffffffffffffffffff168152602001908152602001600020600754908060018154018082558091505090600182039060005260206000200160009091929091909150555050505050505050565b60046020528160005260406000208181548110151561143457fe5b90600052602060002001600091509150505481565b60036020528160005260406000208181548110151561146457fe5b90600052602060002001600091509150505481565b60606001600281111561148857fe5b6000803373ffffffffffffffffffffffffffffffffffffffff1673ffffffffffffffffffffffffffffffffffffffff16815260200190815260200160002060050160009054906101000a900460ff1660028111156114e257fe5b141561157d57600360003373ffffffffffffffffffffffffffffffffffffffff1673ffffffffffffffffffffffffffffffffffffffff16815260200190815260200160002080548060200260200160405190810160405280929190818152602001828054801561157157602002820191906000526020600020905b81548152602001906001019080831161155d575b50505050509050611785565b60028081111561158957fe5b6000803373ffffffffffffffffffffffffffffffffffffffff1673ffffffffffffffffffffffffffffffffffffffff16815260200190815260200160002060050160009054906101000a900460ff1660028111156115e357fe5b141561167e57600460003373ffffffffffffffffffffffffffffffffffffffff1673ffffffffffffffffffffffffffffffffffffffff16815260200190815260200160002080548060200260200160405190810160405280929190818152602001828054801561167257602002820191906000526020600020905b81548152602001906001019080831161165e575b50505050509050611785565b6000600281111561168b57fe5b6000803373ffffffffffffffffffffffffffffffffffffffff1673ffffffffffffffffffffffffffffffffffffffff16815260200190815260200160002060050160009054906101000a900460ff1660028111156116e557fe5b141561178057600260003373ffffffffffffffffffffffffffffffffffffffff1673ffffffffffffffffffffffffffffffffffffffff16815260200190815260200160002080548060200260200160405190810160405280929190818152602001828054801561177457602002820191906000526020600020905b815481526020019060010190808311611760575b50505050509050611785565b600080fd5b90565b6000803373ffffffffffffffffffffffffffffffffffffffff1673ffffffffffffffffffffffffffffffffffffffff16815260200190815260200160002060000160009054906101000a900473ffffffffffffffffffffffffffffffffffffffff1673ffffffffffffffffffffffffffffffffffffffff163373ffffffffffffffffffffffffffffffffffffffff161415151561182457600080fd5b60c0604051908101604052803373ffffffffffffffffffffffffffffffffffffffff16815260200186815260200185815260200184815260200183815260200182600281111561187057fe5b8152506000803373ffffffffffffffffffffffffffffffffffffffff1673ffffffffffffffffffffffffffffffffffffffff16815260200190815260200160002060008201518160000160006101000a81548173ffffffffffffffffffffffffffffffffffffffff021916908373ffffffffffffffffffffffffffffffffffffffff1602179055506020820151816001019080519060200190611914929190611d9d565b506040820151816002019080519060200190611931929190611d9d565b50606082015181600301908051906020019061194e929190611d9d565b50608082015181600401908051906020019061196b929190611d9d565b5060a08201518160050160006101000a81548160ff0219169083600281111561199057fe5b02179055509050505050505050565b6001602052806000526040600020600091509050806000015490806001018054600181600116156101000203166002900480601f016020809104026020016040519081016040528092919081815260200182805460018160011615610100020316600290048015611a515780601f10611a2657610100808354040283529160200191611a51565b820191906000526020600020905b815481529060010190602001808311611a3457829003601f168201915b5050505050908060020160009054906101000a900460ff16908060020160019054906101000a900460ff1690806003018054600181600116156101000203166002900480601f016020809104026020016040519081016040528092919081815260200182805460018160011615610100020316600290048015611b155780601f10611aea57610100808354040283529160200191611b15565b820191906000526020600020905b815481529060010190602001808311611af857829003601f168201915b505050505090806004018054600181600116156101000203166002900480601f016020809104026020016040519081016040528092919081815260200182805460018160011615610100020316600290048015611bb35780601f10611b8857610100808354040283529160200191611bb3565b820191906000526020600020905b815481529060010190602001808311611b9657829003601f168201915b505050505090806005018054600181600116156101000203166002900480601f016020809104026020016040519081016040528092919081815260200182805460018160011615610100020316600290048015611c515780601f10611c2657610100808354040283529160200191611c51565b820191906000526020600020905b815481529060010190602001808311611c3457829003601f168201915b505050505090806006018054600181600116156101000203166002900480601f016020809104026020016040519081016040528092919081815260200182805460018160011615610100020316600290048015611cef5780601f10611cc457610100808354040283529160200191611cef565b820191906000526020600020905b815481529060010190602001808311611cd257829003601f168201915b505050505090806007018054600181600116156101000203166002900480601f016020809104026020016040519081016040528092919081815260200182805460018160011615610100020316600290048015611d8d5780601f10611d6257610100808354040283529160200191611d8d565b820191906000526020600020905b815481529060010190602001808311611d7057829003601f168201915b5050505050905089565b60075481565b828054600181600116156101000203166002900490600052602060002090601f016020900481019282601f10611dde57805160ff1916838001178555611e0c565b82800160010185558215611e0c579182015b82811115611e0b578251825591602001919060010190611df0565b5b509050611e199190611e1d565b5090565b611e3f91905b80821115611e3b576000816000905550600101611e23565b5090565b905600a165627a7a723058205b55ae4b6648e474ff931da8dfe47c6bb82f4bcd58afc0b58adabc3018eb2c260029",
  "source": "pragma solidity ^0.4.23;\r\n\r\n/* TODO: decentralized neuroscience */\r\n\r\n\r\ncontract Agrichain {\r\n\r\n    \r\n    enum AccountType { PRODUCER, DISTRIBUTOR, CONSUMER }\r\n    enum CommodityType { POTATO, APPLES, STRAWBERRY, BLUEBERRY, BLUEB, WHEAT, OAT }\r\n    enum AssetStatus { CREATED, IN_TRANSIT, SELLING, SOLD }\r\n\r\n    struct ParticipantDetail {\r\n        address client;\r\n        string email;\r\n        string fullname;\r\n        string cellnumber;\r\n        string password;\r\n        AccountType accountType;\r\n    }\r\n\r\n    struct Asset {\r\n        uint256 created;\r\n        string harvestYear;\r\n        CommodityType commodity;\r\n        AssetStatus status;\r\n        string totalAcer;\r\n        string averageYield;\r\n        string estimatedBasic;\r\n        string cropInsuranceCoverage;\r\n        string productCost;\r\n    }\r\n\r\n    mapping(address => ParticipantDetail) public participants;\r\n    mapping(uint => Asset) public assets;\r\n    mapping(address => uint[]) public producers;\r\n    mapping(address => uint[]) public distributers;\r\n    mapping(address => uint[]) public consumers;\r\n\r\n    string public version = \"0.0.1\";\r\n    address public owner;\r\n    uint public assetIndex;\r\n    \r\n\r\n    modifier onlyOwner() {\r\n        require(msg.sender == owner);\r\n        _;\r\n    }\r\n\r\n    constructor() public {\r\n        owner = msg.sender;\r\n    }\r\n\r\n    function signup(string _email, string _fullname, string _cellnumber, string _password, AccountType _type) public {\r\n        require(msg.sender != participants[msg.sender].client);\r\n\r\n        participants[msg.sender] = ParticipantDetail(msg.sender, _email, _fullname, _cellnumber, _password, _type);\r\n    }\r\n\r\n    function postAssets(\r\n        string _harvestYear,\r\n        CommodityType _commodity,\r\n        string _totalAcer, \r\n        string _averageYield, \r\n        string _estimatedBasic, \r\n        string _cropInsuranceCoverage, \r\n        string _productCost) public {\r\n\r\n        // msg.sender is a Producer\r\n        require(participants[msg.sender].accountType == AccountType.PRODUCER);\r\n\r\n        assetIndex++;\r\n        assets[assetIndex] = Asset(\r\n            now,\r\n            _harvestYear, \r\n            _commodity, \r\n            AssetStatus.CREATED, \r\n            _totalAcer, \r\n            _averageYield, \r\n            _estimatedBasic, \r\n            _cropInsuranceCoverage, \r\n            _productCost);\r\n\r\n        producers[msg.sender].push(assetIndex);\r\n    }\r\n\r\n    function getAssetsIndex() public view returns (uint[]){\r\n        if(participants[msg.sender].accountType == AccountType.DISTRIBUTOR){\r\n            return distributers[msg.sender];\r\n        }else if(participants[msg.sender].accountType == AccountType.CONSUMER){\r\n            return consumers[msg.sender];\r\n        }else if(participants[msg.sender].accountType == AccountType.PRODUCER){\r\n            return producers[msg.sender];\r\n        }else{\r\n            revert();\r\n        }\r\n    }\r\n\r\n    function sellToDistributor(address _addrDistributor, uint _index) public {\r\n        require(participants[msg.sender].accountType == AccountType.PRODUCER);\r\n        require(participants[_addrDistributor].accountType == AccountType.DISTRIBUTOR);\r\n        require(_index <= assetIndex);\r\n        require(assets[_index].status == AssetStatus.CREATED);\r\n\r\n        assets[_index].status = AssetStatus.SELLING;\r\n        distributers[_addrDistributor].push(_index);\r\n    }\r\n\r\n}\r\n",
  "sourcePath": "C:\\xampp\\htdocs\\BLOCKCHAIN\\agrichain\\contracts\\Agrichain.sol",
  "compiler": {
    "name": "solc",
    "version": "0.4.24+commit.e67f0147.Emscripten.clang"
  },
  "schemaVersion": "2.0.1",
  "updatedAt": "2018-07-02T21:50:53.911Z"
}