{
  "contractName": "Agrichain",
  "abi": [
    {
      "constant": true,
      "inputs": [
        {
          "name": "",
          "type": "address"
        }
      ],
      "name": "participants",
      "outputs": [
        {
          "name": "client",
          "type": "address"
        },
        {
          "name": "email",
          "type": "string"
        },
        {
          "name": "fullname",
          "type": "string"
        },
        {
          "name": "cellnumber",
          "type": "string"
        },
        {
          "name": "password",
          "type": "string"
        },
        {
          "name": "accountType",
          "type": "uint8"
        }
      ],
      "payable": false,
      "stateMutability": "view",
      "type": "function"
    },
    {
      "constant": true,
      "inputs": [
        {
          "name": "",
          "type": "address"
        },
        {
          "name": "",
          "type": "uint256"
        }
      ],
      "name": "producers",
      "outputs": [
        {
          "name": "",
          "type": "uint256"
        }
      ],
      "payable": false,
      "stateMutability": "view",
      "type": "function"
    },
    {
      "constant": true,
      "inputs": [],
      "name": "orderIndex",
      "outputs": [
        {
          "name": "",
          "type": "uint256"
        }
      ],
      "payable": false,
      "stateMutability": "view",
      "type": "function"
    },
    {
      "constant": true,
      "inputs": [
        {
          "name": "",
          "type": "uint256"
        }
      ],
      "name": "allProducers",
      "outputs": [
        {
          "name": "",
          "type": "address"
        }
      ],
      "payable": false,
      "stateMutability": "view",
      "type": "function"
    },
    {
      "constant": true,
      "inputs": [],
      "name": "version",
      "outputs": [
        {
          "name": "",
          "type": "string"
        }
      ],
      "payable": false,
      "stateMutability": "view",
      "type": "function"
    },
    {
      "constant": true,
      "inputs": [
        {
          "name": "",
          "type": "uint256"
        }
      ],
      "name": "allConsumers",
      "outputs": [
        {
          "name": "",
          "type": "address"
        }
      ],
      "payable": false,
      "stateMutability": "view",
      "type": "function"
    },
    {
      "constant": true,
      "inputs": [],
      "name": "DELIVERY_PERIOD",
      "outputs": [
        {
          "name": "",
          "type": "uint256"
        }
      ],
      "payable": false,
      "stateMutability": "view",
      "type": "function"
    },
    {
      "constant": true,
      "inputs": [
        {
          "name": "",
          "type": "uint256"
        }
      ],
      "name": "quantitys",
      "outputs": [
        {
          "name": "totQty",
          "type": "uint256"
        },
        {
          "name": "avaiQty",
          "type": "uint256"
        },
        {
          "name": "sellPrice",
          "type": "string"
        }
      ],
      "payable": false,
      "stateMutability": "view",
      "type": "function"
    },
    {
      "constant": true,
      "inputs": [],
      "name": "owner",
      "outputs": [
        {
          "name": "",
          "type": "address"
        }
      ],
      "payable": false,
      "stateMutability": "view",
      "type": "function"
    },
    {
      "constant": true,
      "inputs": [
        {
          "name": "",
          "type": "uint256"
        }
      ],
      "name": "allDistributers",
      "outputs": [
        {
          "name": "",
          "type": "address"
        }
      ],
      "payable": false,
      "stateMutability": "view",
      "type": "function"
    },
    {
      "constant": true,
      "inputs": [
        {
          "name": "",
          "type": "uint256"
        }
      ],
      "name": "orders",
      "outputs": [
        {
          "name": "index",
          "type": "uint256"
        },
        {
          "name": "created",
          "type": "uint256"
        },
        {
          "name": "producer",
          "type": "address"
        },
        {
          "name": "distributor",
          "type": "address"
        },
        {
          "name": "AssetIndex",
          "type": "uint256"
        },
        {
          "name": "qty",
          "type": "uint256"
        },
        {
          "name": "price",
          "type": "uint256"
        },
        {
          "name": "state",
          "type": "uint8"
        },
        {
          "name": "repState",
          "type": "uint8"
        },
        {
          "name": "delivery",
          "type": "uint256"
        }
      ],
      "payable": false,
      "stateMutability": "view",
      "type": "function"
    },
    {
      "constant": true,
      "inputs": [
        {
          "name": "",
          "type": "address"
        },
        {
          "name": "",
          "type": "uint256"
        }
      ],
      "name": "consumers",
      "outputs": [
        {
          "name": "",
          "type": "uint256"
        }
      ],
      "payable": false,
      "stateMutability": "view",
      "type": "function"
    },
    {
      "constant": true,
      "inputs": [
        {
          "name": "",
          "type": "address"
        },
        {
          "name": "",
          "type": "uint256"
        }
      ],
      "name": "distributers",
      "outputs": [
        {
          "name": "",
          "type": "uint256"
        }
      ],
      "payable": false,
      "stateMutability": "view",
      "type": "function"
    },
    {
      "constant": true,
      "inputs": [
        {
          "name": "",
          "type": "uint256"
        }
      ],
      "name": "assets",
      "outputs": [
        {
          "name": "index",
          "type": "uint256"
        },
        {
          "name": "created",
          "type": "uint256"
        },
        {
          "name": "harvestYear",
          "type": "string"
        },
        {
          "name": "commodity",
          "type": "uint8"
        },
        {
          "name": "totalAcer",
          "type": "string"
        },
        {
          "name": "averageYield",
          "type": "string"
        },
        {
          "name": "estimatedBasic",
          "type": "string"
        },
        {
          "name": "cropInsuranceCoverage",
          "type": "string"
        },
        {
          "name": "productCost",
          "type": "string"
        }
      ],
      "payable": false,
      "stateMutability": "view",
      "type": "function"
    },
    {
      "constant": true,
      "inputs": [],
      "name": "assetIndex",
      "outputs": [
        {
          "name": "",
          "type": "uint256"
        }
      ],
      "payable": false,
      "stateMutability": "view",
      "type": "function"
    },
    {
      "inputs": [],
      "payable": false,
      "stateMutability": "nonpayable",
      "type": "constructor"
    },
    {
      "constant": false,
      "inputs": [
        {
          "name": "_email",
          "type": "string"
        },
        {
          "name": "_fullname",
          "type": "string"
        },
        {
          "name": "_cellnumber",
          "type": "string"
        },
        {
          "name": "_password",
          "type": "string"
        },
        {
          "name": "_type",
          "type": "uint8"
        }
      ],
      "name": "signup",
      "outputs": [],
      "payable": false,
      "stateMutability": "nonpayable",
      "type": "function"
    },
    {
      "constant": false,
      "inputs": [
        {
          "name": "_harvestYear",
          "type": "string"
        },
        {
          "name": "_commodity",
          "type": "uint8"
        },
        {
          "name": "_totalAcer",
          "type": "string"
        },
        {
          "name": "_averageYield",
          "type": "string"
        },
        {
          "name": "_estimatedBasic",
          "type": "string"
        },
        {
          "name": "_cropInsuranceCoverage",
          "type": "string"
        },
        {
          "name": "_productCost",
          "type": "string"
        },
        {
          "name": "_qty",
          "type": "uint256"
        },
        {
          "name": "_sellprice",
          "type": "string"
        }
      ],
      "name": "PostAssets",
      "outputs": [],
      "payable": false,
      "stateMutability": "nonpayable",
      "type": "function"
    },
    {
      "constant": true,
      "inputs": [],
      "name": "getAllProducers",
      "outputs": [
        {
          "name": "",
          "type": "address[]"
        }
      ],
      "payable": false,
      "stateMutability": "view",
      "type": "function"
    },
    {
      "constant": true,
      "inputs": [],
      "name": "getAllDistributors",
      "outputs": [
        {
          "name": "",
          "type": "address[]"
        }
      ],
      "payable": false,
      "stateMutability": "view",
      "type": "function"
    },
    {
      "constant": true,
      "inputs": [],
      "name": "getAllConsumers",
      "outputs": [
        {
          "name": "",
          "type": "address[]"
        }
      ],
      "payable": false,
      "stateMutability": "view",
      "type": "function"
    },
    {
      "constant": true,
      "inputs": [
        {
          "name": "_addr",
          "type": "address"
        },
        {
          "name": "_index",
          "type": "uint256"
        }
      ],
      "name": "getQtyData",
      "outputs": [
        {
          "name": "",
          "type": "uint256"
        }
      ],
      "payable": false,
      "stateMutability": "view",
      "type": "function"
    },
    {
      "constant": true,
      "inputs": [],
      "name": "getAssetsIndex",
      "outputs": [
        {
          "name": "",
          "type": "uint256[]"
        }
      ],
      "payable": false,
      "stateMutability": "view",
      "type": "function"
    },
    {
      "constant": false,
      "inputs": [
        {
          "name": "_proAddr",
          "type": "address"
        },
        {
          "name": "_assetIndex",
          "type": "uint256"
        },
        {
          "name": "_qty",
          "type": "uint256"
        },
        {
          "name": "_price",
          "type": "uint256"
        }
      ],
      "name": "CreateOrder",
      "outputs": [],
      "payable": false,
      "stateMutability": "nonpayable",
      "type": "function"
    },
    {
      "constant": false,
      "inputs": [
        {
          "name": "_orderIndex",
          "type": "uint256"
        },
        {
          "name": "_state",
          "type": "uint8"
        },
        {
          "name": "_repState",
          "type": "uint8"
        },
        {
          "name": "_delivery",
          "type": "uint256"
        }
      ],
      "name": "UpdateOrder",
      "outputs": [],
      "payable": false,
      "stateMutability": "nonpayable",
      "type": "function"
    },
    {
      "constant": false,
      "inputs": [
        {
          "name": "_producer",
          "type": "address"
        },
        {
          "name": "_orderIndex",
          "type": "uint256"
        }
      ],
      "name": "DistributorPurchase",
      "outputs": [],
      "payable": true,
      "stateMutability": "payable",
      "type": "function"
    },
    {
      "constant": false,
      "inputs": [
        {
          "name": "_addrDistributor",
          "type": "address"
        },
        {
          "name": "_assetId",
          "type": "uint256"
        },
        {
          "name": "_qty",
          "type": "uint256"
        }
      ],
      "name": "ConsumerPurchase",
      "outputs": [],
      "payable": true,
      "stateMutability": "payable",
      "type": "function"
    }
  ],
  "bytecode": "0x6080604052610384600a556040805190810160405280600581526020017f302e302e31000000000000000000000000000000000000000000000000000000815250600b908051906020019062000057929190620000ad565b503480156200006557600080fd5b5033600c60006101000a81548173ffffffffffffffffffffffffffffffffffffffff021916908373ffffffffffffffffffffffffffffffffffffffff1602179055506200015c565b828054600181600116156101000203166002900490600052602060002090601f016020900481019282601f10620000f057805160ff191683800117855562000121565b8280016001018555821562000121579182015b828111156200012057825182559160200191906001019062000103565b5b50905062000130919062000134565b5090565b6200015991905b80821115620001555760008160009055506001016200013b565b5090565b90565b6135cc806200016c6000396000f300608060405260043610610154576000357c0100000000000000000000000000000000000000000000000000000000900463ffffffff16806309e69ede1461015957806327d78c69146103a15780632c06779d146104025780632d1632d31461046e57806330471fee146104cf57806334a3bbe7146104fa578063364dfb741461054b578063397734f3146105b757806354fd4d501461062457806355cb320f146106b457806371535ec11461072157806373e539e41461074c5780638271c56d146107ad57806384885372146108615780638da5cb5b14610a855780638e24c34b14610adc5780638f4368ab14610b48578063a85c38ef14610bb5578063a94a962d14610ca9578063add6f41e14610ce9578063b09d687d14610d4a578063c83b90e514610dab578063cc5b68b714610e17578063cf35bdd014610f5f578063dbbb91a814611244578063e07b098a1461128e575b600080fd5b34801561016557600080fd5b5061019a600480360381019080803573ffffffffffffffffffffffffffffffffffffffff1690602001909291905050506112b9565b604051808773ffffffffffffffffffffffffffffffffffffffff1673ffffffffffffffffffffffffffffffffffffffff168152602001806020018060200180602001806020018660028111156101ec57fe5b60ff16815260200185810385528a818151815260200191508051906020019080838360005b8381101561022c578082015181840152602081019050610211565b50505050905090810190601f1680156102595780820380516001836020036101000a031916815260200191505b50858103845289818151815260200191508051906020019080838360005b83811015610292578082015181840152602081019050610277565b50505050905090810190601f1680156102bf5780820380516001836020036101000a031916815260200191505b50858103835288818151815260200191508051906020019080838360005b838110156102f85780820151818401526020810190506102dd565b50505050905090810190601f1680156103255780820380516001836020036101000a031916815260200191505b50858103825287818151815260200191508051906020019080838360005b8381101561035e578082015181840152602081019050610343565b50505050905090810190601f16801561038b5780820380516001836020036101000a031916815260200191505b509a505050505050505050505060405180910390f35b3480156103ad57600080fd5b506103ec600480360381019080803573ffffffffffffffffffffffffffffffffffffffff16906020019092919080359060200190929190505050611582565b6040518082815260200191505060405180910390f35b34801561040e57600080fd5b506104176115b2565b6040518080602001828103825283818151815260200191508051906020019060200280838360005b8381101561045a57808201518184015260208101905061043f565b505050509050019250505060405180910390f35b34801561047a57600080fd5b506104b9600480360381019080803573ffffffffffffffffffffffffffffffffffffffff16906020019092919080359060200190929190505050611640565b6040518082815260200191505060405180910390f35b3480156104db57600080fd5b506104e46117d8565b6040518082815260200191505060405180910390f35b34801561050657600080fd5b5061054960048036038101908080359060200190929190803560ff169060200190929190803560ff169060200190929190803590602001909291905050506117de565b005b34801561055757600080fd5b506105606119be565b6040518080602001828103825283818151815260200191508051906020019060200280838360005b838110156105a3578082015181840152602081019050610588565b505050509050019250505060405180910390f35b3480156105c357600080fd5b506105e260048036038101908080359060200190929190505050611a4c565b604051808273ffffffffffffffffffffffffffffffffffffffff1673ffffffffffffffffffffffffffffffffffffffff16815260200191505060405180910390f35b34801561063057600080fd5b50610639611a8a565b6040518080602001828103825283818151815260200191508051906020019080838360005b8381101561067957808201518184015260208101905061065e565b50505050905090810190601f1680156106a65780820380516001836020036101000a031916815260200191505b509250505060405180910390f35b3480156106c057600080fd5b506106df60048036038101908080359060200190929190505050611b28565b604051808273ffffffffffffffffffffffffffffffffffffffff1673ffffffffffffffffffffffffffffffffffffffff16815260200191505060405180910390f35b34801561072d57600080fd5b50610736611b66565b6040518082815260200191505060405180910390f35b34801561075857600080fd5b506107ab600480360381019080803573ffffffffffffffffffffffffffffffffffffffff169060200190929190803590602001909291908035906020019092919080359060200190929190505050611b6c565b005b3480156107b957600080fd5b506107d860048036038101908080359060200190929190505050611dee565b6040518084815260200183815260200180602001828103825283818151815260200191508051906020019080838360005b83811015610824578082015181840152602081019050610809565b50505050905090810190601f1680156108515780820380516001836020036101000a031916815260200191505b5094505050505060405180910390f35b34801561086d57600080fd5b50610a83600480360381019080803590602001908201803590602001908080601f0160208091040260200160405190810160405280939291908181526020018383808284378201915050505050509192919290803560ff169060200190929190803590602001908201803590602001908080601f0160208091040260200160405190810160405280939291908181526020018383808284378201915050505050509192919290803590602001908201803590602001908080601f0160208091040260200160405190810160405280939291908181526020018383808284378201915050505050509192919290803590602001908201803590602001908080601f0160208091040260200160405190810160405280939291908181526020018383808284378201915050505050509192919290803590602001908201803590602001908080601f0160208091040260200160405190810160405280939291908181526020018383808284378201915050505050509192919290803590602001908201803590602001908080601f016020809104026020016040519081016040528093929190818152602001838380828437820191505050505050919291929080359060200190929190803590602001908201803590602001908080601f0160208091040260200160405190810160405280939291908181526020018383808284378201915050505050509192919290505050611eb0565b005b348015610a9157600080fd5b50610a9a612162565b604051808273ffffffffffffffffffffffffffffffffffffffff1673ffffffffffffffffffffffffffffffffffffffff16815260200191505060405180910390f35b348015610ae857600080fd5b50610af1612188565b6040518080602001828103825283818151815260200191508051906020019060200280838360005b83811015610b34578082015181840152602081019050610b19565b505050509050019250505060405180910390f35b348015610b5457600080fd5b50610b7360048036038101908080359060200190929190505050612216565b604051808273ffffffffffffffffffffffffffffffffffffffff1673ffffffffffffffffffffffffffffffffffffffff16815260200191505060405180910390f35b348015610bc157600080fd5b50610be060048036038101908080359060200190929190505050612254565b604051808b81526020018a81526020018973ffffffffffffffffffffffffffffffffffffffff1673ffffffffffffffffffffffffffffffffffffffff1681526020018873ffffffffffffffffffffffffffffffffffffffff1673ffffffffffffffffffffffffffffffffffffffff168152602001878152602001868152602001858152602001846004811115610c7257fe5b60ff168152602001836003811115610c8657fe5b60ff1681526020018281526020019a505050505050505050505060405180910390f35b610ce7600480360381019080803573ffffffffffffffffffffffffffffffffffffffff16906020019092919080359060200190929190505050612302565b005b348015610cf557600080fd5b50610d34600480360381019080803573ffffffffffffffffffffffffffffffffffffffff16906020019092919080359060200190929190505050612746565b6040518082815260200191505060405180910390f35b348015610d5657600080fd5b50610d95600480360381019080803573ffffffffffffffffffffffffffffffffffffffff16906020019092919080359060200190929190505050612776565b6040518082815260200191505060405180910390f35b348015610db757600080fd5b50610dc06127a6565b6040518080602001828103825283818151815260200191508051906020019060200280838360005b83811015610e03578082015181840152602081019050610de8565b505050509050019250505060405180910390f35b348015610e2357600080fd5b50610f5d600480360381019080803590602001908201803590602001908080601f0160208091040260200160405190810160405280939291908181526020018383808284378201915050505050509192919290803590602001908201803590602001908080601f0160208091040260200160405190810160405280939291908181526020018383808284378201915050505050509192919290803590602001908201803590602001908080601f0160208091040260200160405190810160405280939291908181526020018383808284378201915050505050509192919290803590602001908201803590602001908080601f0160208091040260200160405190810160405280939291908181526020018383808284378201915050505050509192919290803560ff169060200190929190505050612ab5565b005b348015610f6b57600080fd5b50610f8a60048036038101908080359060200190929190505050612e47565b604051808a815260200189815260200180602001886006811115610faa57fe5b60ff168152602001806020018060200180602001806020018060200187810387528e818151815260200191508051906020019080838360005b83811015610ffe578082015181840152602081019050610fe3565b50505050905090810190601f16801561102b5780820380516001836020036101000a031916815260200191505b5087810386528c818151815260200191508051906020019080838360005b83811015611064578082015181840152602081019050611049565b50505050905090810190601f1680156110915780820380516001836020036101000a031916815260200191505b5087810385528b818151815260200191508051906020019080838360005b838110156110ca5780820151818401526020810190506110af565b50505050905090810190601f1680156110f75780820380516001836020036101000a031916815260200191505b5087810384528a818151815260200191508051906020019080838360005b83811015611130578082015181840152602081019050611115565b50505050905090810190601f16801561115d5780820380516001836020036101000a031916815260200191505b50878103835289818151815260200191508051906020019080838360005b8381101561119657808201518184015260208101905061117b565b50505050905090810190601f1680156111c35780820380516001836020036101000a031916815260200191505b50878103825288818151815260200191508051906020019080838360005b838110156111fc5780820151818401526020810190506111e1565b50505050905090810190601f1680156112295780820380516001836020036101000a031916815260200191505b509f5050505050505050505050505050505060405180910390f35b61128c600480360381019080803573ffffffffffffffffffffffffffffffffffffffff1690602001909291908035906020019092919080359060200190929190505050613232565b005b34801561129a57600080fd5b506112a36134f5565b6040518082815260200191505060405180910390f35b60006020528060005260406000206000915090508060000160009054906101000a900473ffffffffffffffffffffffffffffffffffffffff1690806001018054600181600116156101000203166002900480601f01602080910402602001604051908101604052809291908181526020018280546001816001161561010002031660029004801561138b5780601f106113605761010080835404028352916020019161138b565b820191906000526020600020905b81548152906001019060200180831161136e57829003601f168201915b505050505090806002018054600181600116156101000203166002900480601f0160208091040260200160405190810160405280929190818152602001828054600181600116156101000203166002900480156114295780601f106113fe57610100808354040283529160200191611429565b820191906000526020600020905b81548152906001019060200180831161140c57829003601f168201915b505050505090806003018054600181600116156101000203166002900480601f0160208091040260200160405190810160405280929190818152602001828054600181600116156101000203166002900480156114c75780601f1061149c576101008083540402835291602001916114c7565b820191906000526020600020905b8154815290600101906020018083116114aa57829003601f168201915b505050505090806004018054600181600116156101000203166002900480601f0160208091040260200160405190810160405280929190818152602001828054600181600116156101000203166002900480156115655780601f1061153a57610100808354040283529160200191611565565b820191906000526020600020905b81548152906001019060200180831161154857829003601f168201915b5050505050908060050160009054906101000a900460ff16905086565b60046020528160005260406000208181548110151561159d57fe5b90600052602060002001600091509150505481565b6060600780548060200260200160405190810160405280929190818152602001828054801561163657602002820191906000526020600020905b8160009054906101000a900473ffffffffffffffffffffffffffffffffffffffff1673ffffffffffffffffffffffffffffffffffffffff16815260200190600101908083116115ec575b5050505050905090565b60006001600281111561164f57fe5b6000808573ffffffffffffffffffffffffffffffffffffffff1673ffffffffffffffffffffffffffffffffffffffff16815260200190815260200160002060050160009054906101000a900460ff1660028111156116a957fe5b141561170a576002600083815260200190815260200160002060030160008473ffffffffffffffffffffffffffffffffffffffff1673ffffffffffffffffffffffffffffffffffffffff1681526020019081526020016000205490506117d2565b60028081111561171657fe5b6000808573ffffffffffffffffffffffffffffffffffffffff1673ffffffffffffffffffffffffffffffffffffffff16815260200190815260200160002060050160009054906101000a900460ff16600281111561177057fe5b14156117d1576002600083815260200190815260200160002060040160008473ffffffffffffffffffffffffffffffffffffffff1673ffffffffffffffffffffffffffffffffffffffff1681526020019081526020016000205490506117d2565b5b92915050565b600e5481565b600060028111156117eb57fe5b6000803373ffffffffffffffffffffffffffffffffffffffff1673ffffffffffffffffffffffffffffffffffffffff16815260200190815260200160002060050160009054906101000a900460ff16600281111561184557fe5b14151561185157600080fd5b3373ffffffffffffffffffffffffffffffffffffffff166003600086815260200190815260200160002060020160009054906101000a900473ffffffffffffffffffffffffffffffffffffffff1673ffffffffffffffffffffffffffffffffffffffff161415156118c157600080fd5b60036000858152602001908152602001600020600501546002600060036000888152602001908152602001600020600401548152602001908152602001600020600101541015151561191257600080fd5b826003600086815260200190815260200160002060070160006101000a81548160ff0219169083600481111561194457fe5b0217905550816003600086815260200190815260200160002060070160016101000a81548160ff0219169083600381111561197b57fe5b0217905550809050600a54600360008681526020019081526020016000206008015401600360008681526020019081526020016000206008018190555050505050565b60606009805480602002602001604051908101604052809291908181526020018280548015611a4257602002820191906000526020600020905b8160009054906101000a900473ffffffffffffffffffffffffffffffffffffffff1673ffffffffffffffffffffffffffffffffffffffff16815260200190600101908083116119f8575b5050505050905090565b600781815481101515611a5b57fe5b906000526020600020016000915054906101000a900473ffffffffffffffffffffffffffffffffffffffff1681565b600b8054600181600116156101000203166002900480601f016020809104026020016040519081016040528092919081815260200182805460018160011615610100020316600290048015611b205780601f10611af557610100808354040283529160200191611b20565b820191906000526020600020905b815481529060010190602001808311611b0357829003601f168201915b505050505081565b600981815481101515611b3757fe5b906000526020600020016000915054906101000a900473ffffffffffffffffffffffffffffffffffffffff1681565b600a5481565b60016002811115611b7957fe5b6000803373ffffffffffffffffffffffffffffffffffffffff1673ffffffffffffffffffffffffffffffffffffffff16815260200190815260200160002060050160009054906101000a900460ff166002811115611bd357fe5b141515611bdf57600080fd5b81600260008581526020019081526020016000206001015410151515611c0457600080fd5b600082111515611c1357600080fd5b600e6000815480929190600101919050555061014060405190810160405280600e5481526020014281526020018573ffffffffffffffffffffffffffffffffffffffff1681526020013373ffffffffffffffffffffffffffffffffffffffff16815260200184815260200183815260200182815260200160006004811115611c9757fe5b815260200160006003811115611ca957fe5b81526020014281525060036000600e548152602001908152602001600020600082015181600001556020820151816001015560408201518160020160006101000a81548173ffffffffffffffffffffffffffffffffffffffff021916908373ffffffffffffffffffffffffffffffffffffffff16021790555060608201518160030160006101000a81548173ffffffffffffffffffffffffffffffffffffffff021916908373ffffffffffffffffffffffffffffffffffffffff1602179055506080820151816004015560a0820151816005015560c0820151816006015560e08201518160070160006101000a81548160ff02191690836004811115611dab57fe5b02179055506101008201518160070160016101000a81548160ff02191690836003811115611dd557fe5b0217905550610120820151816008015590505050505050565b6002602052806000526040600020600091509050806000015490806001015490806002018054600181600116156101000203166002900480601f016020809104026020016040519081016040528092919081815260200182805460018160011615610100020316600290048015611ea65780601f10611e7b57610100808354040283529160200191611ea6565b820191906000526020600020905b815481529060010190602001808311611e8957829003601f168201915b5050505050905083565b60006002811115611ebd57fe5b6000803373ffffffffffffffffffffffffffffffffffffffff1673ffffffffffffffffffffffffffffffffffffffff16815260200190815260200160002060050160009054906101000a900460ff166002811115611f1757fe5b141515611f2357600080fd5b600d6000815480929190600101919050555061012060405190810160405280600d5481526020014281526020018a8152602001896006811115611f6257fe5b81526020018881526020018781526020018681526020018581526020018481525060016000600d54815260200190815260200160002060008201518160000155602082015181600101556040820151816002019080519060200190611fc89291906134fb565b5060608201518160030160006101000a81548160ff02191690836006811115611fed57fe5b0217905550608082015181600401908051906020019061200e9291906134fb565b5060a082015181600501908051906020019061202b9291906134fb565b5060c08201518160060190805190602001906120489291906134fb565b5060e08201518160070190805190602001906120659291906134fb565b506101008201518160080190805190602001906120839291906134fb565b509050506060604051908101604052808381526020018381526020018281525060026000600d548152602001908152602001600020600082015181600001556020820151816001015560408201518160020190805190602001906120e89291906134fb565b50905050600460003373ffffffffffffffffffffffffffffffffffffffff1673ffffffffffffffffffffffffffffffffffffffff168152602001908152602001600020600d549080600181540180825580915050906001820390600052602060002001600090919290919091505550505050505050505050565b600c60009054906101000a900473ffffffffffffffffffffffffffffffffffffffff1681565b6060600880548060200260200160405190810160405280929190818152602001828054801561220c57602002820191906000526020600020905b8160009054906101000a900473ffffffffffffffffffffffffffffffffffffffff1673ffffffffffffffffffffffffffffffffffffffff16815260200190600101908083116121c2575b5050505050905090565b60088181548110151561222557fe5b906000526020600020016000915054906101000a900473ffffffffffffffffffffffffffffffffffffffff1681565b60036020528060005260406000206000915090508060000154908060010154908060020160009054906101000a900473ffffffffffffffffffffffffffffffffffffffff16908060030160009054906101000a900473ffffffffffffffffffffffffffffffffffffffff16908060040154908060050154908060060154908060070160009054906101000a900460ff16908060070160019054906101000a900460ff1690806008015490508a565b343373ffffffffffffffffffffffffffffffffffffffff16311015151561232857600080fd5b6001600281111561233557fe5b6000803373ffffffffffffffffffffffffffffffffffffffff1673ffffffffffffffffffffffffffffffffffffffff16815260200190815260200160002060050160009054906101000a900460ff16600281111561238f57fe5b14151561239b57600080fd5b8173ffffffffffffffffffffffffffffffffffffffff166003600083815260200190815260200160002060020160009054906101000a900473ffffffffffffffffffffffffffffffffffffffff1673ffffffffffffffffffffffffffffffffffffffff1614151561240b57600080fd5b3373ffffffffffffffffffffffffffffffffffffffff166003600083815260200190815260200160002060030160009054906101000a900473ffffffffffffffffffffffffffffffffffffffff1673ffffffffffffffffffffffffffffffffffffffff1614151561247b57600080fd5b6003600082815260200190815260200160002060050154600260006003600085815260200190815260200160002060040154815260200190815260200160002060010154101515156124cc57600080fd5b600160038111156124d957fe5b6003600083815260200190815260200160002060070160019054906101000a900460ff16600381111561250857fe5b14151561251457600080fd5b60026003600083815260200190815260200160002060070160006101000a81548160ff0219169083600481111561254757fe5b0217905550600380600083815260200190815260200160002060070160016101000a81548160ff0219169083600381111561257e57fe5b0217905550600560003373ffffffffffffffffffffffffffffffffffffffff1673ffffffffffffffffffffffffffffffffffffffff168152602001908152602001600020600360008381526020019081526020016000206004015490806001815401808255809150509060018203906000526020600020016000909192909190915055506003600082815260200190815260200160002060050154600260006003600085815260200190815260200160002060040154815260200190815260200160002060010154036002600060036000858152602001908152602001600020600401548152602001908152602001600020600101819055506003600082815260200190815260200160002060050154600260006003600085815260200190815260200160002060040154815260200190815260200160002060030160003373ffffffffffffffffffffffffffffffffffffffff1673ffffffffffffffffffffffffffffffffffffffff168152602001908152602001600020819055508173ffffffffffffffffffffffffffffffffffffffff166108fc349081150290604051600060405180830381858888f19350505050158015612741573d6000803e3d6000fd5b505050565b60066020528160005260406000208181548110151561276157fe5b90600052602060002001600091509150505481565b60056020528160005260406000208181548110151561279157fe5b90600052602060002001600091509150505481565b6060600160028111156127b557fe5b6000803373ffffffffffffffffffffffffffffffffffffffff1673ffffffffffffffffffffffffffffffffffffffff16815260200190815260200160002060050160009054906101000a900460ff16600281111561280f57fe5b14156128aa57600560003373ffffffffffffffffffffffffffffffffffffffff1673ffffffffffffffffffffffffffffffffffffffff16815260200190815260200160002080548060200260200160405190810160405280929190818152602001828054801561289e57602002820191906000526020600020905b81548152602001906001019080831161288a575b50505050509050612ab2565b6002808111156128b657fe5b6000803373ffffffffffffffffffffffffffffffffffffffff1673ffffffffffffffffffffffffffffffffffffffff16815260200190815260200160002060050160009054906101000a900460ff16600281111561291057fe5b14156129ab57600660003373ffffffffffffffffffffffffffffffffffffffff1673ffffffffffffffffffffffffffffffffffffffff16815260200190815260200160002080548060200260200160405190810160405280929190818152602001828054801561299f57602002820191906000526020600020905b81548152602001906001019080831161298b575b50505050509050612ab2565b600060028111156129b857fe5b6000803373ffffffffffffffffffffffffffffffffffffffff1673ffffffffffffffffffffffffffffffffffffffff16815260200190815260200160002060050160009054906101000a900460ff166002811115612a1257fe5b1415612aad57600460003373ffffffffffffffffffffffffffffffffffffffff1673ffffffffffffffffffffffffffffffffffffffff168152602001908152602001600020805480602002602001604051908101604052809291908181526020018280548015612aa157602002820191906000526020600020905b815481526020019060010190808311612a8d575b50505050509050612ab2565b600080fd5b90565b6000803373ffffffffffffffffffffffffffffffffffffffff1673ffffffffffffffffffffffffffffffffffffffff16815260200190815260200160002060000160009054906101000a900473ffffffffffffffffffffffffffffffffffffffff1673ffffffffffffffffffffffffffffffffffffffff163373ffffffffffffffffffffffffffffffffffffffff1614151515612b5157600080fd5b60c0604051908101604052803373ffffffffffffffffffffffffffffffffffffffff168152602001868152602001858152602001848152602001838152602001826002811115612b9d57fe5b8152506000803373ffffffffffffffffffffffffffffffffffffffff1673ffffffffffffffffffffffffffffffffffffffff16815260200190815260200160002060008201518160000160006101000a81548173ffffffffffffffffffffffffffffffffffffffff021916908373ffffffffffffffffffffffffffffffffffffffff1602179055506020820151816001019080519060200190612c419291906134fb565b506040820151816002019080519060200190612c5e9291906134fb565b506060820151816003019080519060200190612c7b9291906134fb565b506080820151816004019080519060200190612c989291906134fb565b5060a08201518160050160006101000a81548160ff02191690836002811115612cbd57fe5b0217905550905050806002811115612cd157fe5b60016002811115612cde57fe5b1415612d4f5760083390806001815401808255809150509060018203906000526020600020016000909192909190916101000a81548173ffffffffffffffffffffffffffffffffffffffff021916908373ffffffffffffffffffffffffffffffffffffffff16021790555050612e40565b806002811115612d5b57fe5b600280811115612d6757fe5b1415612dd85760093390806001815401808255809150509060018203906000526020600020016000909192909190916101000a81548173ffffffffffffffffffffffffffffffffffffffff021916908373ffffffffffffffffffffffffffffffffffffffff16021790555050612e3f565b60073390806001815401808255809150509060018203906000526020600020016000909192909190916101000a81548173ffffffffffffffffffffffffffffffffffffffff021916908373ffffffffffffffffffffffffffffffffffffffff160217905550505b5b5050505050565b6001602052806000526040600020600091509050806000015490806001015490806002018054600181600116156101000203166002900480601f016020809104026020016040519081016040528092919081815260200182805460018160011615610100020316600290048015612eff5780601f10612ed457610100808354040283529160200191612eff565b820191906000526020600020905b815481529060010190602001808311612ee257829003601f168201915b5050505050908060030160009054906101000a900460ff1690806004018054600181600116156101000203166002900480601f016020809104026020016040519081016040528092919081815260200182805460018160011615610100020316600290048015612fb05780601f10612f8557610100808354040283529160200191612fb0565b820191906000526020600020905b815481529060010190602001808311612f9357829003601f168201915b505050505090806005018054600181600116156101000203166002900480601f01602080910402602001604051908101604052809291908181526020018280546001816001161561010002031660029004801561304e5780601f106130235761010080835404028352916020019161304e565b820191906000526020600020905b81548152906001019060200180831161303157829003601f168201915b505050505090806006018054600181600116156101000203166002900480601f0160208091040260200160405190810160405280929190818152602001828054600181600116156101000203166002900480156130ec5780601f106130c1576101008083540402835291602001916130ec565b820191906000526020600020905b8154815290600101906020018083116130cf57829003601f168201915b505050505090806007018054600181600116156101000203166002900480601f01602080910402602001604051908101604052809291908181526020018280546001816001161561010002031660029004801561318a5780601f1061315f5761010080835404028352916020019161318a565b820191906000526020600020905b81548152906001019060200180831161316d57829003601f168201915b505050505090806008018054600181600116156101000203166002900480601f0160208091040260200160405190810160405280929190818152602001828054600181600116156101000203166002900480156132285780601f106131fd57610100808354040283529160200191613228565b820191906000526020600020905b81548152906001019060200180831161320b57829003601f168201915b5050505050905089565b343373ffffffffffffffffffffffffffffffffffffffff16311015151561325857600080fd5b60028081111561326457fe5b6000803373ffffffffffffffffffffffffffffffffffffffff1673ffffffffffffffffffffffffffffffffffffffff16815260200190815260200160002060050160009054906101000a900460ff1660028111156132be57fe5b1415156132ca57600080fd5b806002600084815260200190815260200160002060030160008573ffffffffffffffffffffffffffffffffffffffff1673ffffffffffffffffffffffffffffffffffffffff168152602001908152602001600020541015151561332c57600080fd5b60008111151561333b57600080fd5b600660003373ffffffffffffffffffffffffffffffffffffffff1673ffffffffffffffffffffffffffffffffffffffff168152602001908152602001600020829080600181540180825580915050906001820390600052602060002001600090919290919091505550806002600084815260200190815260200160002060040160003373ffffffffffffffffffffffffffffffffffffffff1673ffffffffffffffffffffffffffffffffffffffff16815260200190815260200160002081905550806002600084815260200190815260200160002060030160008573ffffffffffffffffffffffffffffffffffffffff1673ffffffffffffffffffffffffffffffffffffffff16815260200190815260200160002054036002600084815260200190815260200160002060030160008573ffffffffffffffffffffffffffffffffffffffff1673ffffffffffffffffffffffffffffffffffffffff168152602001908152602001600020819055508273ffffffffffffffffffffffffffffffffffffffff166108fc349081150290604051600060405180830381858888f193505050501580156134ef573d6000803e3d6000fd5b50505050565b600d5481565b828054600181600116156101000203166002900490600052602060002090601f016020900481019282601f1061353c57805160ff191683800117855561356a565b8280016001018555821561356a579182015b8281111561356957825182559160200191906001019061354e565b5b509050613577919061357b565b5090565b61359d91905b80821115613599576000816000905550600101613581565b5090565b905600a165627a7a72305820667ce560a1e10a91b5b65d29af7a7e6bf24be88401a1744c6e4a5ae263fa6d000029",
  "source": "pragma solidity ^0.4.23;\n\n/* TODO: decentralized neuroscience */\n\n\ncontract Agrichain {\n\n    \n    enum AccountType { PRODUCER, DISTRIBUTOR, CONSUMER }\n    enum CommodityType { POTATO, APPLES, STRAWBERRY, BLUEBERRY, BLUEB, WHEAT, OAT }\n    enum OrderStatus { CREATED, IN_TRANSIT, RECEIVED, SELLING, SOLDOUT }\n    enum OrderReplyStatus { NOACTION, ACCEPT, REJECT, PAYMENT }\n\n    struct ParticipantDetail {\n        address client;\n        string email;\n        string fullname;\n        string cellnumber;\n        string password;\n        AccountType accountType;\n    }\n\n    struct Asset {\n        uint256 index;\n        uint256 created;\n        string harvestYear;\n        CommodityType commodity;\n        string totalAcer;\n        string averageYield;\n        string estimatedBasic;\n        string cropInsuranceCoverage;\n        string productCost;\n    }\n\n    struct Quantity{\n        uint256 totQty;\n        uint256 avaiQty;\n        string sellPrice;\n        mapping(address => uint256) disQty;\n        mapping(address => uint256) conQty;\n    }\n\n    struct Order{\n        uint256 index;\n        uint256 created;\n        address producer;\n        address distributor;\n        uint256 AssetIndex;\n        uint256 qty;\n        uint256 price;\n        OrderStatus state;\n        OrderReplyStatus repState;\n        uint delivery;\n    }\n\n    mapping(address => ParticipantDetail) public participants;\n    mapping(uint256 => Asset) public assets;\n    mapping(uint256 => Quantity) public quantitys;\n    mapping(uint256 => Order) public orders;\n    mapping(address => uint256[]) public producers;\n    mapping(address => uint256[]) public distributers;\n    mapping(address => uint256[]) public consumers;\n\n    address[] public allProducers;\n    address[] public allDistributers;\n    address[] public allConsumers;\n\n    uint public DELIVERY_PERIOD = 15 minutes;\n    string public version = \"0.0.1\";\n    address public owner;\n    uint256 public assetIndex;\n    uint256 public orderIndex;\n\n    // EVENTS\n\n    modifier onlyOwner() {\n        require(msg.sender == owner);\n        _;\n    }\n\n    constructor() public {\n        owner = msg.sender;\n    }\n\n    function signup(string _email, string _fullname, string _cellnumber, string _password, AccountType _type) public {\n        require(msg.sender != participants[msg.sender].client);\n\n        participants[msg.sender] = ParticipantDetail(msg.sender, _email, _fullname, _cellnumber, _password, _type);\n\n        if(AccountType.DISTRIBUTOR == _type){\n            allDistributers.push(msg.sender);\n        }else if(AccountType.CONSUMER == _type){\n            allConsumers.push(msg.sender);\n        }else {\n            allProducers.push(msg.sender);\n        }\n\n    }\n\n    function PostAssets(\n        string _harvestYear,\n        CommodityType _commodity,\n        string _totalAcer,\n        string _averageYield,\n        string _estimatedBasic,\n        string _cropInsuranceCoverage,\n        string _productCost,\n        uint256 _qty,\n        string _sellprice\n    ) public {\n\n        require(participants[msg.sender].accountType == AccountType.PRODUCER);\n\n        assetIndex++;\n        assets[assetIndex] = Asset(\n            assetIndex,\n            now,\n            _harvestYear, \n            _commodity, \n            _totalAcer, \n            _averageYield, \n            _estimatedBasic, \n            _cropInsuranceCoverage, \n            _productCost\n        );\n\n        quantitys[assetIndex] = Quantity(_qty,_qty, _sellprice);\n\n        producers[msg.sender].push(assetIndex);\n    }\n\n    \n\n    function getAllProducers() public view returns (address[]){\n        return allProducers;\n    }\n\n    function getAllDistributors() public view returns (address[]){\n        return allDistributers;\n    }\n\n    function getAllConsumers() public view returns (address[]){\n        return allConsumers;\n    }\n\n    function getQtyData(address _addr, uint256 _index) public view returns(uint256){\n        if(participants[_addr].accountType == AccountType.DISTRIBUTOR){\n            return quantitys[_index].disQty[_addr];\n        }else if(participants[_addr].accountType == AccountType.CONSUMER){\n            return quantitys[_index].conQty[_addr];\n        }\n    }\n\n    function getAssetsIndex() public view returns (uint256[]){\n        if(participants[msg.sender].accountType == AccountType.DISTRIBUTOR){\n            return distributers[msg.sender];\n        }else if(participants[msg.sender].accountType == AccountType.CONSUMER){\n            return consumers[msg.sender];\n        }else if(participants[msg.sender].accountType == AccountType.PRODUCER){\n            return producers[msg.sender];\n        }else{\n            revert();\n        }\n    }\n\n    /*function sellToDistributor(address _addrDistributor, uint256 _index, uint256 _qty) public {\n        require(participants[msg.sender].accountType == AccountType.PRODUCER);\n        require(participants[_addrDistributor].accountType == AccountType.DISTRIBUTOR);\n        require(_index <= assetIndex);\n        require(assets[_index].status == AssetStatus.CREATED);\n\n        assets[_index].status = AssetStatus.SELLING;\n        quantitys[_index].disQty[_addrDistributor] = _qty;\n        quantitys[_index].avaiQty = quantitys[_index].avaiQty - _qty;\n        distributers[_addrDistributor].push(_index);\n    }\n\n    function sellToConsumer(address _addrConsumer, uint256 _index, uint256 _qty) public {\n        require(participants[msg.sender].accountType == AccountType.DISTRIBUTOR);\n        require(participants[_addrConsumer].accountType == AccountType.CONSUMER);\n        require(_index <= assetIndex);\n        require(assets[_index].status == AssetStatus.SELLING);\n\n        quantitys[_index].conQty[_addrConsumer] = _qty;\n        quantitys[_index].disQty[msg.sender] = quantitys[_index].disQty[msg.sender] - _qty;\n        consumers[_addrConsumer].push(_index);\n    }*/\n\n    function CreateOrder(\n        address _proAddr, \n        uint256 _assetIndex,\n        uint256 _qty,\n        uint256 _price) public {\n\n        require(participants[msg.sender].accountType == AccountType.DISTRIBUTOR);\n        require(quantitys[_assetIndex].avaiQty >= _qty);\n        require(_qty > 0);\n        \n        orderIndex++;\n        orders[orderIndex] = Order(\n        orderIndex,\n        now,\n        _proAddr,\n        msg.sender,\n        _assetIndex,\n        _qty,\n        _price,\n        OrderStatus.CREATED,\n        OrderReplyStatus.NOACTION,\n        now\n        );\n\n    }\n\n\n    function UpdateOrder(\n        uint256 _orderIndex,\n        OrderStatus _state,\n        OrderReplyStatus _repState,\n        uint256 _delivery) public {\n\n        require(participants[msg.sender].accountType == AccountType.PRODUCER);\n        require(orders[_orderIndex].producer == msg.sender);\n        require(quantitys[orders[_orderIndex].AssetIndex].avaiQty >= orders[_orderIndex].qty);\n\n        orders[_orderIndex].state = _state;\n        orders[_orderIndex].repState = _repState;\n        _delivery = _delivery;\n        orders[_orderIndex].delivery = orders[_orderIndex].delivery + DELIVERY_PERIOD; // 3 days\n    }\n\n\n    function DistributorPurchase(address _producer, uint256 _orderIndex) public payable {\n        require(address(msg.sender).balance >= msg.value);\n        require(participants[msg.sender].accountType == AccountType.DISTRIBUTOR);\n        require(orders[_orderIndex].producer == _producer);\n        require(orders[_orderIndex].distributor == msg.sender);\n        require(quantitys[orders[_orderIndex].AssetIndex].avaiQty >= orders[_orderIndex].qty);\n        require(orders[_orderIndex].repState == OrderReplyStatus.ACCEPT);\n\n        // Check deliever date\n        // require(now < orders[_orderIndex].delivery);\n\n        orders[_orderIndex].state = OrderStatus.RECEIVED;\n        orders[_orderIndex].repState = OrderReplyStatus.PAYMENT;\n\n        distributers[msg.sender].push(orders[_orderIndex].AssetIndex);\n\n        quantitys[orders[_orderIndex].AssetIndex].avaiQty = quantitys[orders[_orderIndex].AssetIndex].avaiQty - orders[_orderIndex].qty;\n        quantitys[orders[_orderIndex].AssetIndex].disQty[msg.sender] = orders[_orderIndex].qty;\n\n        _producer.transfer(msg.value);\n    }\n\n    function ConsumerPurchase(address _addrDistributor, uint256 _assetId, uint256 _qty) public payable {\n        require(address(msg.sender).balance >= msg.value);\n        require(participants[msg.sender].accountType == AccountType.CONSUMER);\n        require(quantitys[_assetId].disQty[_addrDistributor] >= _qty);\n        require(_qty > 0);\n\n        consumers[msg.sender].push(_assetId);\n\n        quantitys[_assetId].conQty[msg.sender] = _qty;\n        quantitys[_assetId].disQty[_addrDistributor] = quantitys[_assetId].disQty[_addrDistributor] - _qty;\n\n        _addrDistributor.transfer(msg.value);\n    }\n\n\n}\n",
  "sourcePath": "C:\\xampp\\htdocs\\BLOCKCHAIN\\agrichain\\contracts\\Agrichain.sol",
  "compiler": {
    "name": "solc",
    "version": "0.4.24+commit.e67f0147.Emscripten.clang"
  },
  "schemaVersion": "2.0.1",
  "updatedAt": "2018-07-11T08:41:04.037Z"
}