{
  "contractName": "Agrichain",
  "abi": [
    {
      "constant": true,
      "inputs": [
        {
          "name": "",
          "type": "address"
        }
      ],
      "name": "participants",
      "outputs": [
        {
          "name": "client",
          "type": "address"
        },
        {
          "name": "email",
          "type": "string"
        },
        {
          "name": "fullname",
          "type": "string"
        },
        {
          "name": "cellnumber",
          "type": "string"
        },
        {
          "name": "password",
          "type": "string"
        },
        {
          "name": "accountType",
          "type": "uint8"
        }
      ],
      "payable": false,
      "stateMutability": "view",
      "type": "function"
    },
    {
      "constant": true,
      "inputs": [
        {
          "name": "",
          "type": "address"
        },
        {
          "name": "",
          "type": "uint256"
        }
      ],
      "name": "producers",
      "outputs": [
        {
          "name": "",
          "type": "uint256"
        }
      ],
      "payable": false,
      "stateMutability": "view",
      "type": "function"
    },
    {
      "constant": true,
      "inputs": [
        {
          "name": "",
          "type": "uint256"
        }
      ],
      "name": "allProducers",
      "outputs": [
        {
          "name": "",
          "type": "address"
        }
      ],
      "payable": false,
      "stateMutability": "view",
      "type": "function"
    },
    {
      "constant": true,
      "inputs": [],
      "name": "version",
      "outputs": [
        {
          "name": "",
          "type": "string"
        }
      ],
      "payable": false,
      "stateMutability": "view",
      "type": "function"
    },
    {
      "constant": true,
      "inputs": [
        {
          "name": "",
          "type": "uint256"
        }
      ],
      "name": "allConsumers",
      "outputs": [
        {
          "name": "",
          "type": "address"
        }
      ],
      "payable": false,
      "stateMutability": "view",
      "type": "function"
    },
    {
      "constant": true,
      "inputs": [
        {
          "name": "",
          "type": "uint256"
        }
      ],
      "name": "quantitys",
      "outputs": [
        {
          "name": "totQty",
          "type": "uint256"
        },
        {
          "name": "avaiQty",
          "type": "uint256"
        }
      ],
      "payable": false,
      "stateMutability": "view",
      "type": "function"
    },
    {
      "constant": true,
      "inputs": [],
      "name": "owner",
      "outputs": [
        {
          "name": "",
          "type": "address"
        }
      ],
      "payable": false,
      "stateMutability": "view",
      "type": "function"
    },
    {
      "constant": true,
      "inputs": [
        {
          "name": "",
          "type": "uint256"
        }
      ],
      "name": "allDistributers",
      "outputs": [
        {
          "name": "",
          "type": "address"
        }
      ],
      "payable": false,
      "stateMutability": "view",
      "type": "function"
    },
    {
      "constant": true,
      "inputs": [
        {
          "name": "",
          "type": "address"
        },
        {
          "name": "",
          "type": "uint256"
        }
      ],
      "name": "consumers",
      "outputs": [
        {
          "name": "",
          "type": "uint256"
        }
      ],
      "payable": false,
      "stateMutability": "view",
      "type": "function"
    },
    {
      "constant": true,
      "inputs": [
        {
          "name": "",
          "type": "address"
        },
        {
          "name": "",
          "type": "uint256"
        }
      ],
      "name": "distributers",
      "outputs": [
        {
          "name": "",
          "type": "uint256"
        }
      ],
      "payable": false,
      "stateMutability": "view",
      "type": "function"
    },
    {
      "constant": true,
      "inputs": [
        {
          "name": "",
          "type": "uint256"
        }
      ],
      "name": "assets",
      "outputs": [
        {
          "name": "created",
          "type": "uint256"
        },
        {
          "name": "harvestYear",
          "type": "string"
        },
        {
          "name": "commodity",
          "type": "uint8"
        },
        {
          "name": "status",
          "type": "uint8"
        },
        {
          "name": "totalAcer",
          "type": "string"
        },
        {
          "name": "averageYield",
          "type": "string"
        },
        {
          "name": "estimatedBasic",
          "type": "string"
        },
        {
          "name": "cropInsuranceCoverage",
          "type": "string"
        },
        {
          "name": "productCost",
          "type": "string"
        }
      ],
      "payable": false,
      "stateMutability": "view",
      "type": "function"
    },
    {
      "constant": true,
      "inputs": [],
      "name": "assetIndex",
      "outputs": [
        {
          "name": "",
          "type": "uint256"
        }
      ],
      "payable": false,
      "stateMutability": "view",
      "type": "function"
    },
    {
      "inputs": [],
      "payable": false,
      "stateMutability": "nonpayable",
      "type": "constructor"
    },
    {
      "anonymous": false,
      "inputs": [
        {
          "indexed": false,
          "name": "participants",
          "type": "address"
        }
      ],
      "name": "SignUpComplete",
      "type": "event"
    },
    {
      "constant": false,
      "inputs": [
        {
          "name": "_email",
          "type": "string"
        },
        {
          "name": "_fullname",
          "type": "string"
        },
        {
          "name": "_cellnumber",
          "type": "string"
        },
        {
          "name": "_password",
          "type": "string"
        },
        {
          "name": "_type",
          "type": "uint8"
        }
      ],
      "name": "signup",
      "outputs": [],
      "payable": false,
      "stateMutability": "nonpayable",
      "type": "function"
    },
    {
      "constant": false,
      "inputs": [
        {
          "name": "_harvestYear",
          "type": "string"
        },
        {
          "name": "_commodity",
          "type": "uint8"
        },
        {
          "name": "_totalAcer",
          "type": "string"
        },
        {
          "name": "_averageYield",
          "type": "string"
        },
        {
          "name": "_estimatedBasic",
          "type": "string"
        },
        {
          "name": "_cropInsuranceCoverage",
          "type": "string"
        },
        {
          "name": "_productCost",
          "type": "string"
        },
        {
          "name": "_qty",
          "type": "uint256"
        }
      ],
      "name": "postAssets",
      "outputs": [],
      "payable": false,
      "stateMutability": "nonpayable",
      "type": "function"
    },
    {
      "constant": true,
      "inputs": [],
      "name": "getAllProducers",
      "outputs": [
        {
          "name": "",
          "type": "address[]"
        }
      ],
      "payable": false,
      "stateMutability": "view",
      "type": "function"
    },
    {
      "constant": true,
      "inputs": [],
      "name": "getAllDistributors",
      "outputs": [
        {
          "name": "",
          "type": "address[]"
        }
      ],
      "payable": false,
      "stateMutability": "view",
      "type": "function"
    },
    {
      "constant": true,
      "inputs": [],
      "name": "getAllConsumers",
      "outputs": [
        {
          "name": "",
          "type": "address[]"
        }
      ],
      "payable": false,
      "stateMutability": "view",
      "type": "function"
    },
    {
      "constant": true,
      "inputs": [
        {
          "name": "_addr",
          "type": "address"
        },
        {
          "name": "_index",
          "type": "uint256"
        }
      ],
      "name": "getQtyData",
      "outputs": [
        {
          "name": "",
          "type": "uint256"
        }
      ],
      "payable": false,
      "stateMutability": "view",
      "type": "function"
    },
    {
      "constant": true,
      "inputs": [],
      "name": "getAssetsIndex",
      "outputs": [
        {
          "name": "",
          "type": "uint256[]"
        }
      ],
      "payable": false,
      "stateMutability": "view",
      "type": "function"
    },
    {
      "constant": false,
      "inputs": [
        {
          "name": "_addrDistributor",
          "type": "address"
        },
        {
          "name": "_index",
          "type": "uint256"
        },
        {
          "name": "_qty",
          "type": "uint256"
        }
      ],
      "name": "sellToDistributor",
      "outputs": [],
      "payable": false,
      "stateMutability": "nonpayable",
      "type": "function"
    },
    {
      "constant": false,
      "inputs": [
        {
          "name": "_addrConsumer",
          "type": "address"
        },
        {
          "name": "_index",
          "type": "uint256"
        },
        {
          "name": "_qty",
          "type": "uint256"
        }
      ],
      "name": "sellToConsumer",
      "outputs": [],
      "payable": false,
      "stateMutability": "nonpayable",
      "type": "function"
    }
  ],
  "bytecode": "0x60806040526040805190810160405280600581526020017f302e302e310000000000000000000000000000000000000000000000000000008152506009908051906020019062000051929190620000a7565b503480156200005f57600080fd5b5033600a60006101000a81548173ffffffffffffffffffffffffffffffffffffffff021916908373ffffffffffffffffffffffffffffffffffffffff16021790555062000156565b828054600181600116156101000203166002900490600052602060002090601f016020900481019282601f10620000ea57805160ff19168380011785556200011b565b828001600101855582156200011b579182015b828111156200011a578251825591602001919060010190620000fd565b5b5090506200012a91906200012e565b5090565b6200015391905b808211156200014f57600081600090555060010162000135565b5090565b90565b612bed80620001666000396000f30060806040526004361061011d576000357c0100000000000000000000000000000000000000000000000000000000900463ffffffff16806309e69ede14610122578063153e4f741461036a57806327d78c69146105485780632c06779d146105a95780632d1632d314610615578063364dfb7414610676578063397734f3146106e257806354fd4d501461074f57806355cb320f146107df5780638271c56d1461084c5780638da5cb5b146108945780638e24c34b146108eb5780638f4368ab146109575780639da38aeb146109c4578063add6f41e14610a1b578063b09d687d14610a7c578063c83b90e514610add578063cc5b68b714610b49578063cf35bdd014610c91578063e07b098a14610f84578063fce4f84f14610faf575b600080fd5b34801561012e57600080fd5b50610163600480360381019080803573ffffffffffffffffffffffffffffffffffffffff169060200190929190505050611006565b604051808773ffffffffffffffffffffffffffffffffffffffff1673ffffffffffffffffffffffffffffffffffffffff168152602001806020018060200180602001806020018660028111156101b557fe5b60ff16815260200185810385528a818151815260200191508051906020019080838360005b838110156101f55780820151818401526020810190506101da565b50505050905090810190601f1680156102225780820380516001836020036101000a031916815260200191505b50858103845289818151815260200191508051906020019080838360005b8381101561025b578082015181840152602081019050610240565b50505050905090810190601f1680156102885780820380516001836020036101000a031916815260200191505b50858103835288818151815260200191508051906020019080838360005b838110156102c15780820151818401526020810190506102a6565b50505050905090810190601f1680156102ee5780820380516001836020036101000a031916815260200191505b50858103825287818151815260200191508051906020019080838360005b8381101561032757808201518184015260208101905061030c565b50505050905090810190601f1680156103545780820380516001836020036101000a031916815260200191505b509a505050505050505050505060405180910390f35b34801561037657600080fd5b50610546600480360381019080803590602001908201803590602001908080601f0160208091040260200160405190810160405280939291908181526020018383808284378201915050505050509192919290803560ff169060200190929190803590602001908201803590602001908080601f0160208091040260200160405190810160405280939291908181526020018383808284378201915050505050509192919290803590602001908201803590602001908080601f0160208091040260200160405190810160405280939291908181526020018383808284378201915050505050509192919290803590602001908201803590602001908080601f0160208091040260200160405190810160405280939291908181526020018383808284378201915050505050509192919290803590602001908201803590602001908080601f0160208091040260200160405190810160405280939291908181526020018383808284378201915050505050509192919290803590602001908201803590602001908080601f0160208091040260200160405190810160405280939291908181526020018383808284378201915050505050509192919290803590602001909291905050506112cf565b005b34801561055457600080fd5b50610593600480360381019080803573ffffffffffffffffffffffffffffffffffffffff16906020019092919080359060200190929190505050611585565b6040518082815260200191505060405180910390f35b3480156105b557600080fd5b506105be6115b5565b6040518080602001828103825283818151815260200191508051906020019060200280838360005b838110156106015780820151818401526020810190506105e6565b505050509050019250505060405180910390f35b34801561062157600080fd5b50610660600480360381019080803573ffffffffffffffffffffffffffffffffffffffff16906020019092919080359060200190929190505050611643565b6040518082815260200191505060405180910390f35b34801561068257600080fd5b5061068b6117db565b6040518080602001828103825283818151815260200191508051906020019060200280838360005b838110156106ce5780820151818401526020810190506106b3565b505050509050019250505060405180910390f35b3480156106ee57600080fd5b5061070d60048036038101908080359060200190929190505050611869565b604051808273ffffffffffffffffffffffffffffffffffffffff1673ffffffffffffffffffffffffffffffffffffffff16815260200191505060405180910390f35b34801561075b57600080fd5b506107646118a7565b6040518080602001828103825283818151815260200191508051906020019080838360005b838110156107a4578082015181840152602081019050610789565b50505050905090810190601f1680156107d15780820380516001836020036101000a031916815260200191505b509250505060405180910390f35b3480156107eb57600080fd5b5061080a60048036038101908080359060200190929190505050611945565b604051808273ffffffffffffffffffffffffffffffffffffffff1673ffffffffffffffffffffffffffffffffffffffff16815260200191505060405180910390f35b34801561085857600080fd5b5061087760048036038101908080359060200190929190505050611983565b604051808381526020018281526020019250505060405180910390f35b3480156108a057600080fd5b506108a96119a7565b604051808273ffffffffffffffffffffffffffffffffffffffff1673ffffffffffffffffffffffffffffffffffffffff16815260200191505060405180910390f35b3480156108f757600080fd5b506109006119cd565b6040518080602001828103825283818151815260200191508051906020019060200280838360005b83811015610943578082015181840152602081019050610928565b505050509050019250505060405180910390f35b34801561096357600080fd5b5061098260048036038101908080359060200190929190505050611a5b565b604051808273ffffffffffffffffffffffffffffffffffffffff1673ffffffffffffffffffffffffffffffffffffffff16815260200191505060405180910390f35b3480156109d057600080fd5b50610a19600480360381019080803573ffffffffffffffffffffffffffffffffffffffff1690602001909291908035906020019092919080359060200190929190505050611a99565b005b348015610a2757600080fd5b50610a66600480360381019080803573ffffffffffffffffffffffffffffffffffffffff16906020019092919080359060200190929190505050611d09565b6040518082815260200191505060405180910390f35b348015610a8857600080fd5b50610ac7600480360381019080803573ffffffffffffffffffffffffffffffffffffffff16906020019092919080359060200190929190505050611d39565b6040518082815260200191505060405180910390f35b348015610ae957600080fd5b50610af2611d69565b6040518080602001828103825283818151815260200191508051906020019060200280838360005b83811015610b35578082015181840152602081019050610b1a565b505050509050019250505060405180910390f35b348015610b5557600080fd5b50610c8f600480360381019080803590602001908201803590602001908080601f0160208091040260200160405190810160405280939291908181526020018383808284378201915050505050509192919290803590602001908201803590602001908080601f0160208091040260200160405190810160405280939291908181526020018383808284378201915050505050509192919290803590602001908201803590602001908080601f0160208091040260200160405190810160405280939291908181526020018383808284378201915050505050509192919290803590602001908201803590602001908080601f0160208091040260200160405190810160405280939291908181526020018383808284378201915050505050509192919290803560ff169060200190929190505050612078565b005b348015610c9d57600080fd5b50610cbc6004803603810190808035906020019092919050505061246d565b604051808a815260200180602001896006811115610cd657fe5b60ff168152602001886003811115610cea57fe5b60ff168152602001806020018060200180602001806020018060200187810387528f818151815260200191508051906020019080838360005b83811015610d3e578082015181840152602081019050610d23565b50505050905090810190601f168015610d6b5780820380516001836020036101000a031916815260200191505b5087810386528c818151815260200191508051906020019080838360005b83811015610da4578082015181840152602081019050610d89565b50505050905090810190601f168015610dd15780820380516001836020036101000a031916815260200191505b5087810385528b818151815260200191508051906020019080838360005b83811015610e0a578082015181840152602081019050610def565b50505050905090810190601f168015610e375780820380516001836020036101000a031916815260200191505b5087810384528a818151815260200191508051906020019080838360005b83811015610e70578082015181840152602081019050610e55565b50505050905090810190601f168015610e9d5780820380516001836020036101000a031916815260200191505b50878103835289818151815260200191508051906020019080838360005b83811015610ed6578082015181840152602081019050610ebb565b50505050905090810190601f168015610f035780820380516001836020036101000a031916815260200191505b50878103825288818151815260200191508051906020019080838360005b83811015610f3c578082015181840152602081019050610f21565b50505050905090810190601f168015610f695780820380516001836020036101000a031916815260200191505b509f5050505050505050505050505050505060405180910390f35b348015610f9057600080fd5b50610f99612865565b6040518082815260200191505060405180910390f35b348015610fbb57600080fd5b50611004600480360381019080803573ffffffffffffffffffffffffffffffffffffffff169060200190929190803590602001909291908035906020019092919050505061286b565b005b60006020528060005260406000206000915090508060000160009054906101000a900473ffffffffffffffffffffffffffffffffffffffff1690806001018054600181600116156101000203166002900480601f0160208091040260200160405190810160405280929190818152602001828054600181600116156101000203166002900480156110d85780601f106110ad576101008083540402835291602001916110d8565b820191906000526020600020905b8154815290600101906020018083116110bb57829003601f168201915b505050505090806002018054600181600116156101000203166002900480601f0160208091040260200160405190810160405280929190818152602001828054600181600116156101000203166002900480156111765780601f1061114b57610100808354040283529160200191611176565b820191906000526020600020905b81548152906001019060200180831161115957829003601f168201915b505050505090806003018054600181600116156101000203166002900480601f0160208091040260200160405190810160405280929190818152602001828054600181600116156101000203166002900480156112145780601f106111e957610100808354040283529160200191611214565b820191906000526020600020905b8154815290600101906020018083116111f757829003601f168201915b505050505090806004018054600181600116156101000203166002900480601f0160208091040260200160405190810160405280929190818152602001828054600181600116156101000203166002900480156112b25780601f10611287576101008083540402835291602001916112b2565b820191906000526020600020905b81548152906001019060200180831161129557829003601f168201915b5050505050908060050160009054906101000a900460ff16905086565b600060028111156112dc57fe5b6000803373ffffffffffffffffffffffffffffffffffffffff1673ffffffffffffffffffffffffffffffffffffffff16815260200190815260200160002060050160009054906101000a900460ff16600281111561133657fe5b14151561134257600080fd5b600b600081548092919060010191905055506101206040519081016040528042815260200189815260200188600681111561137957fe5b81526020016000600381111561138b57fe5b81526020018781526020018681526020018581526020018481526020018381525060016000600b5481526020019081526020016000206000820151816000015560208201518160010190805190602001906113e7929190612b1c565b5060408201518160020160006101000a81548160ff0219169083600681111561140c57fe5b021790555060608201518160020160016101000a81548160ff0219169083600381111561143557fe5b02179055506080820151816003019080519060200190611456929190612b1c565b5060a0820151816004019080519060200190611473929190612b1c565b5060c0820151816005019080519060200190611490929190612b1c565b5060e08201518160060190805190602001906114ad929190612b1c565b506101008201518160070190805190602001906114cb929190612b1c565b5090505060408051908101604052808281526020018281525060026000600b5481526020019081526020016000206000820151816000015560208201518160010155905050600360003373ffffffffffffffffffffffffffffffffffffffff1673ffffffffffffffffffffffffffffffffffffffff168152602001908152602001600020600b5490806001815401808255809150509060018203906000526020600020016000909192909190915055505050505050505050565b6003602052816000526040600020818154811015156115a057fe5b90600052602060002001600091509150505481565b6060600680548060200260200160405190810160405280929190818152602001828054801561163957602002820191906000526020600020905b8160009054906101000a900473ffffffffffffffffffffffffffffffffffffffff1673ffffffffffffffffffffffffffffffffffffffff16815260200190600101908083116115ef575b5050505050905090565b60006001600281111561165257fe5b6000808573ffffffffffffffffffffffffffffffffffffffff1673ffffffffffffffffffffffffffffffffffffffff16815260200190815260200160002060050160009054906101000a900460ff1660028111156116ac57fe5b141561170d576002600083815260200190815260200160002060020160008473ffffffffffffffffffffffffffffffffffffffff1673ffffffffffffffffffffffffffffffffffffffff1681526020019081526020016000205490506117d5565b60028081111561171957fe5b6000808573ffffffffffffffffffffffffffffffffffffffff1673ffffffffffffffffffffffffffffffffffffffff16815260200190815260200160002060050160009054906101000a900460ff16600281111561177357fe5b14156117d4576002600083815260200190815260200160002060030160008473ffffffffffffffffffffffffffffffffffffffff1673ffffffffffffffffffffffffffffffffffffffff1681526020019081526020016000205490506117d5565b5b92915050565b6060600880548060200260200160405190810160405280929190818152602001828054801561185f57602002820191906000526020600020905b8160009054906101000a900473ffffffffffffffffffffffffffffffffffffffff1673ffffffffffffffffffffffffffffffffffffffff1681526020019060010190808311611815575b5050505050905090565b60068181548110151561187857fe5b906000526020600020016000915054906101000a900473ffffffffffffffffffffffffffffffffffffffff1681565b60098054600181600116156101000203166002900480601f01602080910402602001604051908101604052809291908181526020018280546001816001161561010002031660029004801561193d5780601f106119125761010080835404028352916020019161193d565b820191906000526020600020905b81548152906001019060200180831161192057829003601f168201915b505050505081565b60088181548110151561195457fe5b906000526020600020016000915054906101000a900473ffffffffffffffffffffffffffffffffffffffff1681565b60026020528060005260406000206000915090508060000154908060010154905082565b600a60009054906101000a900473ffffffffffffffffffffffffffffffffffffffff1681565b60606007805480602002602001604051908101604052809291908181526020018280548015611a5157602002820191906000526020600020905b8160009054906101000a900473ffffffffffffffffffffffffffffffffffffffff1673ffffffffffffffffffffffffffffffffffffffff1681526020019060010190808311611a07575b5050505050905090565b600781815481101515611a6a57fe5b906000526020600020016000915054906101000a900473ffffffffffffffffffffffffffffffffffffffff1681565b60006002811115611aa657fe5b6000803373ffffffffffffffffffffffffffffffffffffffff1673ffffffffffffffffffffffffffffffffffffffff16815260200190815260200160002060050160009054906101000a900460ff166002811115611b0057fe5b141515611b0c57600080fd5b60016002811115611b1957fe5b6000808573ffffffffffffffffffffffffffffffffffffffff1673ffffffffffffffffffffffffffffffffffffffff16815260200190815260200160002060050160009054906101000a900460ff166002811115611b7357fe5b141515611b7f57600080fd5b600b548211151515611b9057600080fd5b60006003811115611b9d57fe5b6001600084815260200190815260200160002060020160019054906101000a900460ff166003811115611bcc57fe5b141515611bd857600080fd5b60026001600084815260200190815260200160002060020160016101000a81548160ff02191690836003811115611c0b57fe5b0217905550806002600084815260200190815260200160002060020160008573ffffffffffffffffffffffffffffffffffffffff1673ffffffffffffffffffffffffffffffffffffffff16815260200190815260200160002081905550806002600084815260200190815260200160002060010154036002600084815260200190815260200160002060010181905550600460008473ffffffffffffffffffffffffffffffffffffffff1673ffffffffffffffffffffffffffffffffffffffff168152602001908152602001600020829080600181540180825580915050906001820390600052602060002001600090919290919091505550505050565b600560205281600052604060002081815481101515611d2457fe5b90600052602060002001600091509150505481565b600460205281600052604060002081815481101515611d5457fe5b90600052602060002001600091509150505481565b606060016002811115611d7857fe5b6000803373ffffffffffffffffffffffffffffffffffffffff1673ffffffffffffffffffffffffffffffffffffffff16815260200190815260200160002060050160009054906101000a900460ff166002811115611dd257fe5b1415611e6d57600460003373ffffffffffffffffffffffffffffffffffffffff1673ffffffffffffffffffffffffffffffffffffffff168152602001908152602001600020805480602002602001604051908101604052809291908181526020018280548015611e6157602002820191906000526020600020905b815481526020019060010190808311611e4d575b50505050509050612075565b600280811115611e7957fe5b6000803373ffffffffffffffffffffffffffffffffffffffff1673ffffffffffffffffffffffffffffffffffffffff16815260200190815260200160002060050160009054906101000a900460ff166002811115611ed357fe5b1415611f6e57600560003373ffffffffffffffffffffffffffffffffffffffff1673ffffffffffffffffffffffffffffffffffffffff168152602001908152602001600020805480602002602001604051908101604052809291908181526020018280548015611f6257602002820191906000526020600020905b815481526020019060010190808311611f4e575b50505050509050612075565b60006002811115611f7b57fe5b6000803373ffffffffffffffffffffffffffffffffffffffff1673ffffffffffffffffffffffffffffffffffffffff16815260200190815260200160002060050160009054906101000a900460ff166002811115611fd557fe5b141561207057600360003373ffffffffffffffffffffffffffffffffffffffff1673ffffffffffffffffffffffffffffffffffffffff16815260200190815260200160002080548060200260200160405190810160405280929190818152602001828054801561206457602002820191906000526020600020905b815481526020019060010190808311612050575b50505050509050612075565b600080fd5b90565b6000803373ffffffffffffffffffffffffffffffffffffffff1673ffffffffffffffffffffffffffffffffffffffff16815260200190815260200160002060000160009054906101000a900473ffffffffffffffffffffffffffffffffffffffff1673ffffffffffffffffffffffffffffffffffffffff163373ffffffffffffffffffffffffffffffffffffffff161415151561211457600080fd5b60c0604051908101604052803373ffffffffffffffffffffffffffffffffffffffff16815260200186815260200185815260200184815260200183815260200182600281111561216057fe5b8152506000803373ffffffffffffffffffffffffffffffffffffffff1673ffffffffffffffffffffffffffffffffffffffff16815260200190815260200160002060008201518160000160006101000a81548173ffffffffffffffffffffffffffffffffffffffff021916908373ffffffffffffffffffffffffffffffffffffffff1602179055506020820151816001019080519060200190612204929190612b1c565b506040820151816002019080519060200190612221929190612b1c565b50606082015181600301908051906020019061223e929190612b1c565b50608082015181600401908051906020019061225b929190612b1c565b5060a08201518160050160006101000a81548160ff0219169083600281111561228057fe5b021790555090505080600281111561229457fe5b600160028111156122a157fe5b14156123125760073390806001815401808255809150509060018203906000526020600020016000909192909190916101000a81548173ffffffffffffffffffffffffffffffffffffffff021916908373ffffffffffffffffffffffffffffffffffffffff16021790555050612403565b80600281111561231e57fe5b60028081111561232a57fe5b141561239b5760083390806001815401808255809150509060018203906000526020600020016000909192909190916101000a81548173ffffffffffffffffffffffffffffffffffffffff021916908373ffffffffffffffffffffffffffffffffffffffff16021790555050612402565b60063390806001815401808255809150509060018203906000526020600020016000909192909190916101000a81548173ffffffffffffffffffffffffffffffffffffffff021916908373ffffffffffffffffffffffffffffffffffffffff160217905550505b5b7fc4981db434777d6b4d01d581b49070b1e1b8efe35404244657762855d442e1d133604051808273ffffffffffffffffffffffffffffffffffffffff1673ffffffffffffffffffffffffffffffffffffffff16815260200191505060405180910390a15050505050565b6001602052806000526040600020600091509050806000015490806001018054600181600116156101000203166002900480601f01602080910402602001604051908101604052809291908181526020018280546001816001161561010002031660029004801561251f5780601f106124f45761010080835404028352916020019161251f565b820191906000526020600020905b81548152906001019060200180831161250257829003601f168201915b5050505050908060020160009054906101000a900460ff16908060020160019054906101000a900460ff1690806003018054600181600116156101000203166002900480601f0160208091040260200160405190810160405280929190818152602001828054600181600116156101000203166002900480156125e35780601f106125b8576101008083540402835291602001916125e3565b820191906000526020600020905b8154815290600101906020018083116125c657829003601f168201915b505050505090806004018054600181600116156101000203166002900480601f0160208091040260200160405190810160405280929190818152602001828054600181600116156101000203166002900480156126815780601f1061265657610100808354040283529160200191612681565b820191906000526020600020905b81548152906001019060200180831161266457829003601f168201915b505050505090806005018054600181600116156101000203166002900480601f01602080910402602001604051908101604052809291908181526020018280546001816001161561010002031660029004801561271f5780601f106126f45761010080835404028352916020019161271f565b820191906000526020600020905b81548152906001019060200180831161270257829003601f168201915b505050505090806006018054600181600116156101000203166002900480601f0160208091040260200160405190810160405280929190818152602001828054600181600116156101000203166002900480156127bd5780601f10612792576101008083540402835291602001916127bd565b820191906000526020600020905b8154815290600101906020018083116127a057829003601f168201915b505050505090806007018054600181600116156101000203166002900480601f01602080910402602001604051908101604052809291908181526020018280546001816001161561010002031660029004801561285b5780601f106128305761010080835404028352916020019161285b565b820191906000526020600020905b81548152906001019060200180831161283e57829003601f168201915b5050505050905089565b600b5481565b6001600281111561287857fe5b6000803373ffffffffffffffffffffffffffffffffffffffff1673ffffffffffffffffffffffffffffffffffffffff16815260200190815260200160002060050160009054906101000a900460ff1660028111156128d257fe5b1415156128de57600080fd5b6002808111156128ea57fe5b6000808573ffffffffffffffffffffffffffffffffffffffff1673ffffffffffffffffffffffffffffffffffffffff16815260200190815260200160002060050160009054906101000a900460ff16600281111561294457fe5b14151561295057600080fd5b600b54821115151561296157600080fd5b6002600381111561296e57fe5b6001600084815260200190815260200160002060020160019054906101000a900460ff16600381111561299d57fe5b1415156129a957600080fd5b806002600084815260200190815260200160002060030160008573ffffffffffffffffffffffffffffffffffffffff1673ffffffffffffffffffffffffffffffffffffffff16815260200190815260200160002081905550806002600084815260200190815260200160002060020160003373ffffffffffffffffffffffffffffffffffffffff1673ffffffffffffffffffffffffffffffffffffffff16815260200190815260200160002054036002600084815260200190815260200160002060020160003373ffffffffffffffffffffffffffffffffffffffff1673ffffffffffffffffffffffffffffffffffffffff16815260200190815260200160002081905550600560008473ffffffffffffffffffffffffffffffffffffffff1673ffffffffffffffffffffffffffffffffffffffff168152602001908152602001600020829080600181540180825580915050906001820390600052602060002001600090919290919091505550505050565b828054600181600116156101000203166002900490600052602060002090601f016020900481019282601f10612b5d57805160ff1916838001178555612b8b565b82800160010185558215612b8b579182015b82811115612b8a578251825591602001919060010190612b6f565b5b509050612b989190612b9c565b5090565b612bbe91905b80821115612bba576000816000905550600101612ba2565b5090565b905600a165627a7a723058209570e1a65f8ae161e52011de8a9365929b7b9b486cb773b2da21d0615436e8640029",
  "source": "pragma solidity ^0.4.23;\r\n\r\n/* TODO: decentralized neuroscience */\r\n\r\n\r\ncontract Agrichain {\r\n\r\n    \r\n    enum AccountType { PRODUCER, DISTRIBUTOR, CONSUMER }\r\n    enum CommodityType { POTATO, APPLES, STRAWBERRY, BLUEBERRY, BLUEB, WHEAT, OAT }\r\n    enum AssetStatus { CREATED, IN_TRANSIT, SELLING, SOLD }\r\n\r\n    struct ParticipantDetail {\r\n        address client;\r\n        string email;\r\n        string fullname;\r\n        string cellnumber;\r\n        string password;\r\n        AccountType accountType;\r\n    }\r\n\r\n    struct Asset {\r\n        uint256 created;\r\n        string harvestYear;\r\n        CommodityType commodity;\r\n        AssetStatus status;\r\n        string totalAcer;\r\n        string averageYield;\r\n        string estimatedBasic;\r\n        string cropInsuranceCoverage;\r\n        string productCost;\r\n    }\r\n\r\n    struct Quantity{\r\n        uint256 totQty;\r\n        uint256 avaiQty;\r\n        mapping(address => uint256) disQty;\r\n        mapping(address => uint256) conQty;\r\n    }\r\n\r\n    \r\n\r\n    mapping(address => ParticipantDetail) public participants;\r\n    mapping(uint256 => Asset) public assets;\r\n    mapping(uint256 => Quantity) public quantitys;\r\n    mapping(address => uint256[]) public producers;\r\n    mapping(address => uint256[]) public distributers;\r\n    mapping(address => uint256[]) public consumers;\r\n\r\n    address[] public allProducers;\r\n    address[] public allDistributers;\r\n    address[] public allConsumers;\r\n\r\n    string public version = \"0.0.1\";\r\n    address public owner;\r\n    uint256 public assetIndex;\r\n\r\n    // EVENTS\r\n\r\n    event SignUpComplete(address participants);\r\n    \r\n\r\n    modifier onlyOwner() {\r\n        require(msg.sender == owner);\r\n        _;\r\n    }\r\n\r\n    constructor() public {\r\n        owner = msg.sender;\r\n    }\r\n\r\n    function signup(string _email, string _fullname, string _cellnumber, string _password, AccountType _type) public {\r\n        require(msg.sender != participants[msg.sender].client);\r\n\r\n        participants[msg.sender] = ParticipantDetail(msg.sender, _email, _fullname, _cellnumber, _password, _type);\r\n\r\n        if(AccountType.DISTRIBUTOR == _type){\r\n            allDistributers.push(msg.sender);\r\n        }else if(AccountType.CONSUMER == _type){\r\n            allConsumers.push(msg.sender);\r\n        }else {\r\n            allProducers.push(msg.sender);\r\n        }\r\n\r\n        emit SignUpComplete(msg.sender);\r\n    }\r\n\r\n    function postAssets(\r\n        string _harvestYear,\r\n        CommodityType _commodity,\r\n        string _totalAcer, \r\n        string _averageYield, \r\n        string _estimatedBasic, \r\n        string _cropInsuranceCoverage, \r\n        string _productCost,\r\n        uint256 _qty) public {\r\n\r\n        // msg.sender is a Producer\r\n        require(participants[msg.sender].accountType == AccountType.PRODUCER);\r\n\r\n        assetIndex++;\r\n        assets[assetIndex] = Asset(\r\n            now,\r\n            _harvestYear, \r\n            _commodity, \r\n            AssetStatus.CREATED, \r\n            _totalAcer, \r\n            _averageYield, \r\n            _estimatedBasic, \r\n            _cropInsuranceCoverage, \r\n            _productCost);\r\n\r\n        quantitys[assetIndex] = Quantity(_qty,_qty);\r\n\r\n        producers[msg.sender].push(assetIndex);\r\n    }\r\n\r\n    function getAllProducers() public view returns (address[]){\r\n        return allProducers;\r\n    }\r\n\r\n    function getAllDistributors() public view returns (address[]){\r\n        return allDistributers;\r\n    }\r\n\r\n    function getAllConsumers() public view returns (address[]){\r\n        return allConsumers;\r\n    }\r\n\r\n    function getQtyData(address _addr, uint256 _index) public view returns(uint256){\r\n        if(participants[_addr].accountType == AccountType.DISTRIBUTOR){\r\n            return quantitys[_index].disQty[_addr];\r\n        }else if(participants[_addr].accountType == AccountType.CONSUMER){\r\n            return quantitys[_index].conQty[_addr];\r\n        }\r\n    }\r\n\r\n    function getAssetsIndex() public view returns (uint256[]){\r\n        if(participants[msg.sender].accountType == AccountType.DISTRIBUTOR){\r\n            return distributers[msg.sender];\r\n        }else if(participants[msg.sender].accountType == AccountType.CONSUMER){\r\n            return consumers[msg.sender];\r\n        }else if(participants[msg.sender].accountType == AccountType.PRODUCER){\r\n            return producers[msg.sender];\r\n        }else{\r\n            revert();\r\n        }\r\n    }\r\n\r\n    function sellToDistributor(address _addrDistributor, uint256 _index, uint256 _qty) public {\r\n        require(participants[msg.sender].accountType == AccountType.PRODUCER);\r\n        require(participants[_addrDistributor].accountType == AccountType.DISTRIBUTOR);\r\n        require(_index <= assetIndex);\r\n        require(assets[_index].status == AssetStatus.CREATED);\r\n\r\n        assets[_index].status = AssetStatus.SELLING;\r\n        quantitys[_index].disQty[_addrDistributor] = _qty;\r\n        quantitys[_index].avaiQty = quantitys[_index].avaiQty - _qty;\r\n        distributers[_addrDistributor].push(_index);\r\n    }\r\n\r\n    function sellToConsumer(address _addrConsumer, uint256 _index, uint256 _qty) public {\r\n        require(participants[msg.sender].accountType == AccountType.DISTRIBUTOR);\r\n        require(participants[_addrConsumer].accountType == AccountType.CONSUMER);\r\n        require(_index <= assetIndex);\r\n        require(assets[_index].status == AssetStatus.SELLING);\r\n\r\n        quantitys[_index].conQty[_addrConsumer] = _qty;\r\n        quantitys[_index].disQty[msg.sender] = quantitys[_index].disQty[msg.sender] - _qty;\r\n        consumers[_addrConsumer].push(_index);\r\n    }\r\n\r\n}\r\n",
  "sourcePath": "C:\\xampp\\htdocs\\BLOCKCHAIN\\agrichain\\contracts\\Agrichain.sol",
  "compiler": {
    "name": "solc",
    "version": "0.4.24+commit.e67f0147.Emscripten.clang"
  },
  "schemaVersion": "2.0.1",
  "updatedAt": "2018-07-06T04:53:50.089Z"
}